:100000003CC6000067C6000074C6000063C600005E
:100010000C94088E0C94CC995DC600005BC6000061
:1000200059C6000057C6000055C6000053C6000060
:1000300051C600004FC600004DC600004BC6000070
:1000400049C600000C94589C45C6000043C60000F9
:1000500041C600003FC600003DC600003BC6000090
:1000600039C6000037C600000C945C0A33C6000095
:1000700031C600002FC600002DC600002BC60000B0
:1000800029C6000027C6000025C6000023C60000C0
:1000900021C600001FC600001DC600001BC60000D0
:1000A00019C6000017C6000015C6000013C60000E0
:1000B00011C600000FC600000DC600000BC60000F0
:1000C00009C6000007C6000005C6000003C6000000
:1000D00001C60000FFC50000FDC50000FBC5000013
:1000E000F9C50000CA27CD27A6291B301B30242ABA
:1000F0001B30DA2A1B301B301B30E82AE62C1B3061
:10010000252D1B30762D122E1B30882E1B301B30D8
:10011000F52E5030523054305630563059305B3016
:1001200070397F39733977397B397F3994398E3912
:1001300082398A397F397F399C39A0399839983981
:1001400091397739FE61E861E8610462E861E8614C
:10015000E861E861E861E861E8610C620162E86118
:10016000E8610862E861F9610662E8610A62E861D3
:10017000FB61F762F562F762FF62FF62FF62FC6299
:10018000FF62FF62FF62FF62FF62FF62FF62EF6277
:10019000FF62F362ED62FF62F162516956695D6967
:1001A00058695F6964695F6969698C699169966971
:1001B00087722C732C738B722C732C73BC722C7300
:1001C0002C73BF722C732C73DD722C732C73C6725C
:1001D0002C732C73DF722C732C73F3722C732C73AF
:1001E0000B73568E9E8E778E178F1B8F208F248FCA
:1001F000A8903C8E4C3A00533A008C15351BC10D2B
:10020000A91A6E116A1166118312C815F71A5B1FBD
:10021000C5112B166219CB0EA10E010100000416A8
:10022000010100000000FC122803505004160101D7
:1002300000800C00C2131201464690A2060300562D
:100240000500AA131201232390A20A0300AB0200A7
:100250005E1323504554534349494155544F535716
:1002600041502E47454E004155544F535741502E53
:100270004C5354003A0052454144593A006E657659
:10028000657220646965732100436F6D6D6F646FE3
:1002900072650020062007062003040520060706D5
:1002A0002006202006070620200801020607062057
:1002B0000720200001070F0F1E1C1C1F1F1F11000D
:1002C000000000000000001F1E1C001C1E0F0F0776
:1002D000010000000000111F1F1F001C1E1F000056
:1002E0000000000000000507020000001B1F1F0E99
:1002F000040000436F6E74726173743A20002061D1
:100300006E6420536861646F776F6C66210043727E
:100310006564697473203220556E7365656E0032B2
:1003200030303920627920532E204261646572009A
:1003300053443249454320312E302E30002C204387
:1003400052432000436F64652065786563206174C3
:1003500020004D2D572043524320726573756C74F5
:100360003A2000FFE20053595354454DA0A0A0A0ED
:10037000A0A0A0A0A0A000000000000000000000BD
:10038000000DA0FE0DED03C6E534B101FEFF000037
:10039000FFA3EAFF4C01C6E537B102E9A638B10474
:1003A00000000000000A2A04FF660B4F04FF6600ED
:1003B000000000000303036E89009A0504A46D0089
:1003C000000404A46D009C0505136E009A05051336
:1003D0006E00030406A46D017F0518616E003603EC
:1003E00007848A00000317E76C000005085D7300AE
:1003F000A901092A6D0057040A8A710070040B8A4A
:100400007101E2030C467000DC030C467000FF0330
:100410000D4670000F040E46700000040F087200B5
:100420000004100872010003114F72000004124F03
:1004300072000003134F72000005134F7200000397
:10044000147F7D000005150D6600F405165066004A
:10045000000519F17B001B041ABB7C0000041B6221
:100460007F000502003E8C00170400878B002404E7
:100470001C0A8C008B041DEB73000502005E7701E3
:100480000A02005E77020003215E77000902009AEB
:1004900077007007259A77005807249A770070072D
:1004A000249A7700A807249A7700D806239A770021
:1004B0007E07239A7700AA07239A7700AC07239A2E
:1004C0007700A507229A7700B107229A77006F0577
:1004D000219A77007005219A77007705219A770095
:1004E000E905219A7700EA05219A7700EC05219A1F
:1004F0007700EE05219A7700EF05219A7700FC0539
:10050000219A7700FE05219A77001006219A77003C
:100510006E06219A7700A406219A7700B606219AE2
:100520007700FC05209A7700FE05209A7700FF05EA
:10053000209A77002606209A77006806209A77008E
:10054000DA051F9A7700F1051F9A7700F4051F9AC4
:10055000770000061F9A7700730327DD6A00B8044E
:1005600027DD6A000B0200DD6A000D0200DD6A0073
:100570000F0200DD6A00110200DD6A0005020012B0
:10058000860000072E60670000072F6067010007E4
:10059000306067020007316067030007326067035D
:1005A00000073360670400073460670500073560A3
:1005B00067060007366067060007376067060007B2
:1005C000386067060007396067060502003B830054
:1005D0000000000000009F9C0300B0DA04003B977D
:1005E0000400387E0400301B05000E8B0500309996
:1005F00006008102180896C1180981DD07003E39FE
:100600001700015A090079B90A0169240B01794DD3
:100610000C01BCB20C0172B20C01EDDA0D028D3F7F
:100620000E0247C90E0340F10F047E7310045A7581
:10063000110420291104E918110504981105F54841
:1006400011055613110585E81105CA4E1105F6DB93
:100650001105ABE41105E56D1105FF301105E74605
:100660001105532211056AC212060C5512065B824F
:1006700013075B2413072170130737D5130735F6CB
:100680001307C14314007048150025291600A6124F
:100690001900920C08007D321A00F46A1B00F2D295
:1006A0001D006786210000E3250CA419240C1D748D
:1006B000240CE4F7240CEC1E230C9343230C476C0E
:1006C000230CF1D9230C05A9220CF6E7220C2820D3
:1006D000210B292C210BB44E210B6856210B906A5B
:1006E000210BAA74210B5E7C210B287E210BE7A134
:1006F000210B50A3210BE4B0210B40B3210BDCC133
:10070000210B28EB210BA8F5210B9AFC210BA5034B
:10071000210D1FBA210D68CA210DCA2F200BCEB49E
:10072000200B30E5200BAAF71F0A9D371F0A480C43
:100730002700665F2700D67C2E10ECF12E10102BC0
:100740002F10F4B0301044AF3111431F320FDDB21F
:10075000320F9F80330F4630340FE6B8340F3AC85B
:10076000351153043610597C36105AA436103D1CEE
:1007700036103A8D370E2145380E3EC3390E000033
:100780000000000000005F0885086C088D086C08F8
:10079000B108DD08C3086C08B108F708C3081109DF
:1007A00037090000A7070000C7078B7792778B7780
:1007B000F574EE74F5748B77D209526700005667B2
:1007C0000000596700005D670000BA31FA3041301F
:1007D000E430DB30D230C930C430DB317530C23068
:1007E000BA307A3004462C30623045452032410020
:1007F000454550524F4D4653202020202020202098
:1008000000453A0080204F4B810053205343524112
:10081000544348454482080994959697989B010350
:10082000999C02039A022050524F54454354204F42
:100830004E9D054944204D49534D415443489E9F88
:10084000A0A1A253594E54415803A7BE0004464FDD
:10085000554E44B2070450524553454E54B34F567B
:100860004552464C4F5720494E2007B4000B4C418F
:10087000524745BC0220002006BD000406BF0020F0
:10088000455849535453C0002054595045204D49B0
:10089000534D41544348C10C424C4F434BC2C30AD1
:1008A00020545241434B204F5220534543544F5202
:1008B000C60C4348414E4E454CC744495203C805F7
:1008C00046554C4CCA4452495645040159CD09205D
:1008D000080ACE4255464645520B534D414C4CCF2B
:1008E000494D414745200020494E56414C4944E27C
:1008F000554E4B4E4F574E204452495645434F4458
:1009000045E3434C4F434B20554E535441424C45D5
:10091000FF8046494C4581524541448257524954D3
:100920004583204552524F5284204E4F54208544D7
:1009300049534B20864F50454E875245434F5244B2
:1009400088504152544954494F4E208953454C4593
:10095000435445448A494C4C4547414C8B20544FA5
:100960004F208C4E4F20FF2D6D323536302D617269
:100970006475696E6F5F6D6567613235363000533F
:1009800044324945432056312E302E302D4C4344BD
:100990003000E33B24439243203E8B3ED63EAA38B0
:1009A0003739D83FDD3FC444663C8B3C603E344021
:1009B000CB4143363446696C6500464154333200BE
:1009C00001030507090E10121416181C1E533A00D5
:1009D0004C3A004C3A004C3A0044454C5345515077
:1009E000524755535252454C43424D4449523F3F62
:1009F0003F4E41543431203731203831200101003D
:100A000000424C4F434B5320465245452E20202058
:100A10002020202020202020202000000001010094
:100A2000002020202253595354454D2220202020BD
:100A30002020202020202053595320200001040191
:100A40000100001222534432494543202020202037
:100A500020202020202220494B203241009333289F
:100A6000902B3C0000000201050900000002010477
:100A70000900070201040900070102040900070A2E
:100A8000010204090701020604090806040309001B
:100A9000623578B219781BD4F029E5F000000075B2
:100AA0006E6B6E6F776E3A0D0A00313238535953C0
:100AB00054454D310053595354454D3100756E6BBB
:100AC0006E6F776E3A0D0A00130C140F1706180498
:100AD00000130D140F141100556E68616E646C657F
:100AE0006420637573746F6D206472697665636FDB
:100AF00064652C204352432000206C6F6164657252
:100B00002000556E6B6E6F776E2064726976656338
:100B10006F64652C2043524320004B52494C4C00DB
:100B2000802040100802040123F9BB740248ABFC8A
:100B30007407855E2177110000000000A61B14AC2D
:100B4000E55043FE50197F781E8E14CBE350A3CEA0
:100B5000649F44A09D2714933414000000884A1613
:100B600002A103D28A15028403A2F43504C5011937
:100B70008D3504C5019CEC3504C5011905B403DAB3
:100B8000034C21A503C8035431A803E6037A3EC4ED
:100B900003F903284CA303C903A6CBB203D8036C03
:100BA000EAA403CA03E4491803420300000000005A
:100BB000004E4558540042554620455252004E4979
:100BC00050504F4E0030313233343536373839419A
:100BD000424344454692D26FBD8CD3BDE20AFFFD2D
:100BE000000000000000FFFD00F8FAFBFC00FFFE23
:100BF000F4F9FBFCFDF1FFFBF9FAFCFDFEF608023F
:100C00000401102040800802040140108020D1EB34
:100C10002800000011121315D893FF93009304933A
:100C2000A2929392AA383739D83FDD3FFC92619265
:100C30003E930446F745B19253443249454320312F
:100C40002E302E30006E6F6E6520005354373033D7
:100C50003620004844343437383020000A0A4C43E8
:100C6000443A20000D0A73643269656320312E30E6
:100C70002E302D4C43443020230011241FBECFEFD3
:100C8000D1E2DEBFCDBF00E00CBF14BE0FB6F894BA
:100C9000A895809160008861809360001092600048
:100CA0000FBE12E0A0E0B2E0EAECFDE301E00BBF12
:100CB00002C007900D92A437B107D9F72FE0A4E73F
:100CC000B2E001C01D92AB3BB207E1F70E940F9565
:100CD0000C94E39E95C928E039E040E8880F660F40
:100CE00008F4842787FB0EF483272A95B9F78F77BA
:100CF00008952F932FB72F933F938F930F92499976
:100D000000C00F908F913F912F912FBF2F91189579
:100D1000000000002A95F1F708954B9BFECF08953F
:100D20004B99FECF0895F894FC0188279927519894
:100D300052984B9B529A499BFCCF29E2E9DF09B0BC
:100D400002FA85F901FA84F92EE1E4DF09B002FA2A
:100D500087F901FA86F928E1DBDF09B002FA81F9A7
:100D600001FA83F92EE1D6DF09B002FA80F901FA1F
:100D700082F92EE1CFDF39B12CE0CADF529A27E1A8
:100D8000C7DF80953083789408953AB1307F00FAB8
:100D900031F901FA32F9069406943AB90895F894B3
:100DA0005AE0442309F054604F77662321F06AB17A
:100DB000607F646003C06AB1607F6260529851983E
:100DC00000C000C000C000C0082E009489B18E7021
:100DD0008517E1F38870E1F021E19CDFD6DF21E1A6
:100DE00097DFD3DF24E195DFD0DF21E191DFCDDF95
:100DF0002DE090DF442361F427E08ADF6AB900C068
:100E000000C000C000C089B183FF02C082FDFBCFDB
:100E100080958870789408954A99FECF80952AB17C
:100E2000207F2AB94A9BFECF00C000C000C000C08E
:100E300044E03AB1307F87FB31F986FB32F9880F05
:100E4000880F24E465DF3AB900C000C000C000C0CC
:100E50004A9579F72EE35DDF2AB1207F22602AB917
:100E600008954A99FECF2AB1207F2AB9FC014A9BF6
:100E7000FECF2AE04EDF019044E000942BE148DFF2
:100E80003AB1307F07FA31F906FA32F9000C000C5A
:100E90002AE340DF3AB929E03CDF4A9589F727E1A8
:100EA00039DF6A9541F72AE134DF2AB1207F2260D9
:100EB0002AB908953AB1307F00FA31F901FA32F9CE
:100EC0003AB906940694089539B132FB80F931FBA2
:100ED00082F90895519A4B9B07C04A99FCCF5198CB
:100EE0004B9B02C04A9BFCCF0895F894FC01519A99
:100EF00028E110DF54E00190009444E0DBDF26E1BC
:100F000009DF4A95D9F708DF5A95A9F73AB1307F3A
:100F10003AB978940895F894882727E1F9DE529831
:100F2000499BFECF28E2F6DECFDF880F2AE1F0DE14
:100F3000CBDF8295869527E1EBDEC6DF880F22E1C5
:100F4000E7DEC2DF529A7894809599270895F89445
:100F5000082E52984999FECF499BFECF2EE1D8DE4C
:100F6000A9DF2CE0D6DEA6DF2CE0D3DEA3DF2CE069
:100F7000D0DEA0DF2FE0CCDE5198529A00C000C036
:100F800000C000C089B18095887078940895F89465
:100F9000082E52984999FECF499BFECF2EE1B8DE2C
:100FA00089DF21E1B5DE86DF21E1B2DE83DF21E1E9
:100FB000AFDE80DF2FE0ACDE5198529A00C000C057
:100FC00000C000C089B18095887078940895F89425
:100FD0009FEF88277FDF4B9B14C02DE19ADE74DFE3
:100FE000880F22E195DE70DF829586952DE192DEF5
:100FF0006BDF880F22E18CDE67DF22E38BDE99272F
:10100000809578940895F894529A4B9B19C0499909
:10101000FCCF52984B9B14C0499BFCCF082E0094E8
:1010200084E02DE075DE2BE074DE44DF8A95D9F78D
:1010300024E16FDE5198529800C000C000C000C08B
:101040007894089507FA31F905FA32F93AB9089512
:101050005298519800C000C000C000C03AB1307F23
:101060004B9B17C04A9BFCCF082E24E152DEEADFDF
:10107000000C22E14DDEE6DF8295082E22E149DEFA
:10108000E1DF000C22E144DEDDDF22E343DE8827DE
:10109000089581E008958827499BFECF4999FECFA6
:1010A00024E237DE39B131FB83F932FB84F920E2E7
:1010B0002FDE39B131FB85F932FB86F90895EBDF7C
:1010C0002DE127DE01DF880F22E222DEFDDE2AE1AC
:1010D00021DE809599270895DEDF21E11ADEF4DE16
:1010E000880F25E116DEF0DE27E112DE80959927D4
:1010F00008955198529800C000C000C000C049999E
:10110000FECF3AB1307F032E0895F3DF83FB31F930
:1011100081FB32F928E2FEDD07C0EBDF83FB31F90A
:1011200081FB32F920E1F4DD3AB9302D82FB31F94F
:1011300080FB32F925E1ECDD3AB98095302D84FB56
:1011400031F985FB32F928E1E5DD3AB9302D86FB2E
:1011500031F987FB32F92BE1DDDD3AB927E3D8CD50
:1011600008958095C6DF082E29E0D4DDA3DE29E0AE
:10117000CFDDA0DE21E1CCDD9DDE2FE0CBDD9ADEF0
:101180002CE1C6CD0895B5DF07D082952AE0C1DDF8
:1011900003D027E3BECD0895302D83FB31F981FBC9
:1011A00032F92FE0B6DD3AB9302D82FB31F980FB00
:1011B00032F920E2AEDD3AB908958827499BFECF87
:1011C0004999FECF25E2A4DD7FDE880F22E1A0DD74
:1011D0007BDE829586952FE19BDD76DE880F2AE106
:1011E00097DD72DE22E396DD9927809508958827A2
:1011F000499BFECF4999FECF28E28BDD65DE880F43
:1012000025E187DD61DE8295869525E283DD5CDE62
:10121000880F22E27DDD58DE22E37CDD9927809570
:1012200008958827499BFECF4999FECF24E271DDBE
:1012300039B131FB80F932FB81F928E169DD39B13F
:1012400031FB82F932FB83F928E162DD39B131FBF0
:1012500084F932FB85F928E15BDD39B131FB86F990
:1012600032FB87F92DE156DD809599270895809509
:1012700040DF082E29E04EDD1DDE2CE04ADD1ADEBF
:1012800024E147DD17DE24E144DD14DE22E242CD15
:101290000895F8948095082E51984A9BFECF26E039
:1012A00037DD08DE2CE035DD05DE2CE032DD02DE48
:1012B0002CE02FDDFFDD20E12BDD5298519A789450
:1012C0000895F894882751984A99FECF4A9BFECFFB
:1012D0002BE11FDDF9DD880F22E11ADDF5DD8295B6
:1012E000869522E216DDF0DD880F22E111DDECDDCE
:1012F00027E010DD519A7894809599270895F89405
:10130000082E51985298499BFECF21E102DDD2DD93
:101310002CE0FFDCCFDD2CE0FCDCCCDD2CE0F9DCCC
:10132000C9DD27E0F6DC5198529A2DE0F3DC789481
:101330000895F8943AB1307F4A9BFECF529A24E246
:10134000E8DC5298082E23E0E3DC7CDE000C2DE084
:10135000E0DC78DE8295082E2DE0DCDC73DE000C0C
:101360002DE0D7DC6FDE20E1D4DC52982AE0D2DC1D
:1013700089B1847078940895F894082ED1DC52983D
:10138000CCDC27E4C7DC96DD29E3C2DC93DD29E36E
:10139000BFDC90DD29E3BCDC8DDD2DE3BADC529AA5
:1013A000789408958095082EBBDCB7DC21E1B0DC91
:1013B00081DD2CE0AEDC7EDD2CE0ABDC7BDD2CE0E7
:1013C000A8DC78DD2FE0A4DC519821E1A1DC4B9B67
:1013D00002C0519AE8CF8827089582E085BD81EE4A
:1013E00094E0909389008093880010928500109279
:1013F0008400109280008BE080938100EFE6F0E0A3
:101400008081826080830895811103C01DBC80E5C6
:1014100003C081E08DBD82E58CBD089595B1907FBC
:101420009B6095B994B1907F976094B9811103C086
:101430001DBC80E503C081E08DBD82E58CBD8DB50E
:101440008EB508958EBD0DB407FEFDCF8EB50895FF
:101450008FEF8EBD0DB407FEFDCF8EB50895680FDA
:10146000791F8617970789F0411103C0FC0120817D
:1014700001C02FEF2EBD0DB407FEFDCF2EB54423C6
:1014800011F0FC0120830196ECCF089585B78068A8
:1014900085BF85BF089583B7817F83BF83B7816090
:1014A00083BF089588950895F894E0E0F0E01995D9
:1014B000F8940895789408951F920F920FB60F92A2
:1014C00011240BB60F922F933F938F939F93EF931B
:1014D000FF9320917602309177028091740290916F
:1014E00075022817390721F1E0917602F091770211
:1014F000E858FD4F80818093C600809176029091DC
:10150000770201968F7799279093770280937602DE
:101510002091760230917702809174029091750249
:101520002817390729F48091C1008F7D8093C1006D
:10153000FF91EF919F918F913F912F910F900BBE53
:101540000F900FBE0F901F9018952091740230914C
:1015500075022F5F3F4F2F773327E1ECF0E090814A
:101560009F7D9083A0917402B0917502A858BD4FE1
:101570008C93309375022093740280818062808303
:101580000895CF93C82F8A3011F48DE0DEDF8C2FC1
:10159000DCDF80E090E0CF910895CF93C82F829553
:1015A0008F708A3010F4805D01C0895ACEDF8C2F95
:1015B0008F708A3010F4805D01C0895AC6DFCF91E8
:1015C0000895209176023091770280917402909173
:1015D000750228173907A9F70895CF93DF93FC0107
:1015E0008491EF012196882319F0AFDFFE01F8CF37
:1015F000DF91CF9108958DE0A8DF8AE0A6CF08950E
:10160000A0E0B0E0E6E0FBE00C94EB9D7B015A012A
:10161000EC01C60FD71F00E010E00A151B0508F00B
:101620004EC08F2DBADF8E2DB8DF8CE78EDF80E2C3
:101630008CDF4E0180E1880E911C6E01C8018C1B6D
:101640009D0B8C0D9D1D8A159B0520F4F601808154
:10165000A4DF04C080E279DF80E277DF80E275DF1B
:10166000FFEFCF1ADF0A8C149D0441F78CE76DDF82
:10167000C12CD12CC8018C0D9D1D8A159B0568F4C9
:101680004E018FEF881A980A888190EE980F9F3547
:1016900008F08EE25ADFE40102C080E256DFEFEF8D
:1016A000CE1ADE0AF0E1CF16D10421F78CE74DDF28
:1016B000A2DF80E1E80EF11C005F1F4FAECFCDB777
:1016C000DEB7ECE00C94079E1092C50087E0809393
:1016D000C40088E18093C10086E08093C20080E06E
:1016E00092E09093B80F8093B70F10927702109208
:1016F00076021092750210927402089580E00895A7
:10170000CF93DF9390E3899FF0011124DF01A2586A
:10171000B44F8C9180FD15C0EC58F44F9F012E5FA3
:101720003F4F8EE2E90119928A95E9F78C91816029
:101730008C9384E684838EE79BE096878587908BE5
:101740008787DF91CF910895E4E7FBE080E591E0A2
:10175000DF019C011D9221503040E1F788EF92E0BB
:101760009183808388EF93E091AB80AB88EF94E026
:101770009093D50B8093D40B88EF95E09093050C54
:101780008093040C88EF96E09093350C8093340C92
:1017900088EF97E09093650C8093640C8BE89DE054
:1017A0009093950C8093940C8FE08093980CEEE9C5
:1017B000FCE080818D608062808381E897E3909374
:1017C000A20C8093A10C8EE79BE09093A40C8093D5
:1017D000A30C0895CF93DF9380E090E020E3289F4F
:1017E000E001299FD00D1124FE01E258F44F208121
:1017F00020FD05C085DFCE018C58944F09C00196AD
:101800008630910559F786E40E947D3780E090E0AC
:10181000DF91CF910895DEDF009741F0FC01148243
:101820002091E50C2F5F2093E50CA5980895A0E08A
:10183000B0E0EDE1FCE00C94EF9D182F20E030E0EB
:1018400000E080E090E3929FF001939FF00D11245F
:10185000E258F44F908190FD07C0811101C0022F22
:101860008F5F811302C008C080E02F5F3F4F26309A
:10187000310541F7811750F080E3089FE001112402
:10188000CC58D44FE12EE00EF02E06C086E40E9424
:101890007D3780E090E033C0C02ED12CFE14C9F01B
:1018A0008F2D2EDF8091E50C8F5F8093E50CFE017C
:1018B0001C82E096D68BC58B20E32C9DC0012D9D0C
:1018C000900D11248C58944F948B838B128BF3942E
:1018D000E3CFA598C601810F911D019720E3289FB2
:1018E000F001299FF00D1124EC58F44F168A158A47
:1018F0002C9DC0012D9D900D11248C58944FCDB777
:10190000DEB7E8E00C940B9EFC01892B21F12481C9
:101910002F3009F1928590FF1EC09E7F928794FF21
:1019200005C08091E50C80518093E50C243628F4A5
:101930008091E50C81508093E50C0E94319280915A
:10194000E50C811108C080912B0E80FD04C08091B0
:101950002A0E0C94F3230895CF93DF93EC01EF85C7
:10196000F8891995CE01D0DFDF91CF910895EF92DC
:10197000FF920F931F93CF93DF93D82F04E71BE0C1
:10198000E12CF12CC0E080E38E9DF0018F9DF00DE5
:101990001124E258F44F808180FF2BC0D1FD05C097
:1019A000D80114968C91843620F5D2FD0BC080E3CB
:1019B0008E9DF0018F9DF00D1124E258F44F80812F
:1019C00086FD17C0D0FF13C0C1110EC0D8011F96ED
:1019D000ED91FC915097C801199521E030E08111FB
:1019E00005C020E030E002C021E030E0C22FC80195
:1019F0008BDFBFEFEB1AFB0A005D1F4FE6E0EE1630
:101A0000F10409F0C0CF8C2FCDB7DEB7E6E00C941F
:101A10000D9EE4E7FBE040E050E090E3949F9001EE
:101A2000959F300D1124D901A258B44F9C9190FF7D
:101A300007C09481981304C0C9018C58944F08952D
:101A40004F5F5F4FF0964730510539F780E090E0E7
:101A50000895FC01928594FD0CC09061928780915D
:101A6000E50C805F8093E50C809102018F7E80936E
:101A700002010895FC01928594FF0FC09F7E92871A
:101A80008091E50C80518093E50C82958F7029F44C
:101A90008091020180618093020108955FEF560FEB
:101AA00020E6829FC0011124FC01E158F14F208102
:101AB0002F77842F90E0223061F02430E9F121303B
:101AC00009F440C0533228F05CED560F2BEA32E0A7
:101AD00002C020E030E0513130F445E1549F800DE8
:101AE000911D112433C0652F70E0583158F46151B5
:101AF0007109E3E1E69FA001E79F500D11244B59C6
:101B00005E4F17C05E3158F468517109E2E1E69FFB
:101B1000A001E79F500D112446515E4F0AC06E513F
:101B20007109E1E1E69FA001E79F500D11244A5A97
:101B30005D4F840F951F0AC028E2529F800D911DB2
:101B400011240895252F30E0322F2227820F931F72
:101B50000895E091FB08F091FC080190F081E02DE0
:101B6000828380958383DB018C91848311968C9191
:101B7000858380EC868308958FE10E947D3781E024
:101B800008958FE10C947D370895EF92FF920F93A3
:101B90001F93CF93DF93F82EE90180E091E0F901E4
:101BA0009C01119221503040E1F78FEF89838F2DF6
:101BB00075DFAC0160E070E0762F652F542F44276D
:101BC000E12C00E011E09E018F2D0E944446CDB72C
:101BD000DEB7E6E00C940D9E4F925F926F927F927B
:101BE000AF92BF92CF92DF92EF92FF920F931F932B
:101BF000CF93DF93F82E6B0140E051E061E070E09D
:101C0000F601808191810E94799EAF2CB12C80E6F3
:101C1000F89EF0011124E857F14F40805180628016
:101C20007380BB27A72D962D852DEC011C161D0654
:101C3000C4F48E01C130E1E0DE0714F000E011E0F1
:101C4000F60120813181E12CB301A2018F2D0E9488
:101C50004446811113C0FFEF5F1A6F0A7F0ADA95BD
:101C6000E5CF80E68A9DF0018B9DF00D1124E158AF
:101C7000F14F80818068808380E001C081E0DF9146
:101C8000CF911F910F91FF90EF90DF90CF90BF9079
:101C9000AF907F906F905F904F900895EF920F9369
:101CA0001F93CF93C82F8B01E42EFB0141816081EC
:101CB000F5DEF8014281F0E24F9FA0011124052ECC
:101CC000000C660B770BA0E0B0E0BA2FA92F982F7D
:101CD0008827480F591F6A1F7B1F00E210E024EC81
:101CE0003CE08C2F0E944446CF911F910F91EF90C2
:101CF00008950F931F93CF93C82F8B01FB01418150
:101D00006081CCDEF8014281F0E24F9FA0011124F6
:101D1000052E000C660B770BA0E0B0E0BA2FA92FC0
:101D2000982F8827480F591F6A1F7B1F00E210E079
:101D300024EC3CE08C2F0E940846CF911F910F911C
:101D40000895EF92FF920F931F93CF93DF937C013F
:101D50008A01EB016C96BE01FC018081CADF811112
:101D600015C040E150E060EA70E089EC9CE00E9420
:101D7000799EF801A9ECBCE08191882311F08D9344
:101D8000FBCF41E0BE01F701808188DFCDB7DEB730
:101D9000E6E00C940D9EA2E0B0E0E1EDFEE00C94D4
:101DA000EF9D7C01FC01C08080E6C89EF0011124FB
:101DB000E158F14FD080E1E0DE1621F0C7010E942A
:101DC000F7452FC0FB018081811104C0F701D58246
:101DD000D68239C08F3551F5FB018181811126C032
:101DE000F701468165818C2D59DEAC0160E070E021
:101DF000762F652F542F44274E5D5F4F6F4F7F4FD7
:101E000002E010E09E012F5F3F4F8C2D0E9408469C
:101E100081111AC08981F701811105C080810E945A
:101E20007544D82E11C085838A810CC0645E7F4FB3
:101E30008C2D5FDF811108C08091C70CF70185836D
:101E40008091C80C8683D12C8D2D2296E8E00C94CD
:101E50000B9EEF92FF920F931F93CF93DF93EC01B2
:101E6000E881F9811082E881F9818A8181836E8914
:101E70004F89888D998D0196998F888F611102C045
:101E800011E043C0FD888F2D09DE28813981AC0126
:101E900060E070E0762F652F542F4427EE24E39402
:101EA00000E011E08F2D0E9444468111E9CF8E01A0
:101EB0000F5E1F4FB8018D891CDF8111E1CF80912A
:101EC000C60C80688093C60C888D8093E20C888D48
:101ED000998D9093E30C82E58093DD0C88E08093EC
:101EE000DE0C8FE18093DF0C1092E00C1092E10C7D
:101EF00041E0B8018D89D2DE182F8111C1CF8EE764
:101F00009BE0988B8F87CE01FFDC812FCDB7DEB7AA
:101F1000E6E00C940D9EA0E0B0E0E1E9FFE00C9457
:101F2000EF9DC82E790180E6C89EF0011124E1588A
:101F3000F14F80818F77833029F08430E9F0813050
:101F400089F42AC0643270F041110AC070E0645212
:101F50007109C62FCC0FC60FD0E035E3D32E27C0B2
:101F6000C9EB05C0660F660FC1E04111C0E0C60FA6
:101F7000D0E022E1D22E1BC0693208F04FC0D1E080
:101F8000C1E04111C0E0C65F862F880F680F660F61
:101F9000C60F98E2D92E0BC0D62FD695D695D695DA
:101FA000DE5FC62FC295CC0FC07EDD24D394A091F6
:101FB000FB08B091FC0851968C915197C8120AC049
:101FC00052969C915297D91205C053969C91539763
:101FD000D917B9F0E091F908F091FA08309709F1B2
:101FE000F093FC08E093FB08B093FA08A093F9087B
:101FF0008189C81238C08289D81235C08389D81324
:1020000032C0E091FB08F091FC08808191818C0F37
:10201000911DF7019183808380E057C06852D2E020
:10202000AFCF8F3F01F1D6DBFC019093FA0880938C
:10203000F908892B09F445C085E684838FEF818BED
:1020400085E092E1908B878782858064828780918A
:10205000FB089091FC08F093FC08E093FB08909338
:10206000FA088093F9088091FB089091FC08DC0144
:102070001F96ED91FC9150971995811120C04D2F1D
:102080006D2D8C2D0BDDE091FB08F091FC0820817B
:102090003181AC0160E070E0762F652F542F44272A
:1020A00000E011E08C2D0E94084681110EC0E091E5
:1020B000FB08F091FC08C18AD28AD38BA2CF81E0C1
:1020C00004C080E00E947D37CECFCDB7DEB7E8E018
:1020D0000C940B9EA2E0B0E0E0E7F0E10C94F39DDD
:1020E000182F042F1A8219829E012F5F3F4F40E064
:1020F00012DF81112FC080E6189FF0011124E158F2
:10210000F14F3081202F26952695269589819A8139
:102110000770FC01E20FF11D313091F42081822F14
:1021200090E020E830E0002E02C0359527950A9413
:10213000E2F72823392381E0232B69F480E00BC0E8
:10214000808190E0002E02C0959587950A94E2F771
:10215000817001C08FEF2296E4E00C940F9EA2E004
:10216000B0E0E5EBF0E10C94F29D082FF62E142F71
:10217000B1DF87FF02C081E056C0811102C080E05C
:1021800052C09E012F5F3F4F40E06F2D802FC3DE76
:102190008111F1CFE091FB08F091FC0892859260EB
:1021A000928790E6099FF0011124E158F14F2081B8
:1021B000912F969596959695E981FA811770E90F7A
:1021C000F11D213069F420E830E0012E02C0359580
:1021D00027950A94E2F7209590812923208323C034
:1021E00081E090E0012E01C0880F0A94EAF7809503
:1021F0009081892380839E012F5F3F4F41E06F2DA7
:10220000802F89DE8111B7CFE981FA8190819923EE
:1022100009F4B5CF91509083E091FB08F091FC0850
:102220009285926092872296E5E00C940E9EA0E043
:10223000B0E0EDE1F1E10C94EE9DFC017B01B42EE8
:10224000C22FD081CD2ED12C80E6D89FD001112471
:10225000A158B14F8C91813011F4468101C040E00A
:1022600065818D2F1BDCAC010C2F10E080E68C9D6E
:10227000F0018D9DF00D1124EE5AFF4FEB0DF11D75
:10228000E25DF14F808160E070E0762F652F542F82
:102290004427480F511D611D711D97018D2F0E940C
:1022A000084681110DC02FEF2C0FF701E20FF11D31
:1022B0009081903A11F490E290832150B0F701C0E0
:1022C00081E0CDB7DEB7E9E00C940A9E25E045E059
:1022D000AECF089520E144E0AACF0895CF92DF92D7
:1022E000FF920F931F93CF93DF93CDB7DEB727975E
:1022F0000FB6F894DEBF0FBECDBF6B0190E6899F8D
:10230000F0011124DF01A158B14FFC90A1E0FA12B5
:102310000CC000E110E09B0144E051E060E070E09F
:102320000E940846882399F021C08983E75AF14F1B
:1023300086E0DE01129601900D928A95E1F7CE01BA
:102340000196C8DF882319F0FF24F3940FC0F6012B
:102350003F96D60150961C92EC15FD0531F0808118
:10236000803219F431971182F7CFF12C8F2D2796F7
:102370000FB6F894DEBF0FBECDBFDF91CF911F9196
:102380000F91FF90DF90CF900895A2E0B0E0EBECCA
:10239000F1E10C94EF9DFC01DB018C91808315969B
:1023A0006C911597618316964C9116974283138210
:1023B00084818E7F8483CC9080E6C89ED0011124D6
:1023C000A158B14FDC9081E0D81219C07F018C2D4B
:1023D00065DBAC0160E070E0762F652F542F442759
:1023E00002E010E09E012F5F3F4F8C2D0E940846B7
:1023F000811106C08981F70181838A818283D12C72
:102400008D2D2296E8E00C940B9EEF92FF920F9395
:102410001F93CF93DF93EC019A85892F827091FFF0
:102420001EC0F98880912D0EF816C0F44B896A8978
:102430008F2D34DB28813981AC0160E070E0762F8C
:10244000652F542F4427EE24E39400E011E08F2DF4
:102450000E9444469A859D7F9A8701C080E0CDB74F
:10246000DEB7E6E00C940D9EA2E0B0E0EAE3F2E114
:102470000C94F59D1A821982611103C080E090E0EE
:102480003EC090E6899F90011124F901E058F14F78
:102490009381961798F3F901E158F14F90819F7756
:1024A0009E012F5F3F4F41E0913011F534DD8111E6
:1024B000E5CFE981FA81BF01605E7F4F40E050E0E7
:1024C0003191232F269525753575230F922F937300
:1024D000269526952373920F892F8F7092959F7062
:1024E000980F490F511D6E177F0751F7CA0107C09A
:1024F00012DD8111C3CFE981FA81808190E02296BB
:10250000E2E00C94119EFF920F931F93CF93DF9301
:10251000F82EC1E000E010E020E6F29EC001112498
:10252000FC01E058F14F23812C1738F1FC01E158F0
:10253000F14F80818F77813059F0843019F4C8329F
:10254000A9F419C0C231B9F0C533A9F0813071F4D2
:10255000C13061F4D0E44D2F61E08F2DBBDD181642
:1025600014F40F5F1F4FDF5FB1F705C06C2F8F2D85
:102570007BDF080F191FCF5F79F6C801CDB7DEB733
:10258000E5E00C940E9EA0E0B0E0E9ECF2E10C94E2
:10259000ED9D7B01EA01690120E6829FC0011124C3
:1025A000FC01E058F14F5F0184818B01080F111D80
:1025B00049E150E060EA70E0C8010E94799EFE01A6
:1025C000D8019E012F5E3F4F8191882329F0E217A9
:1025D000F30711F08D93F8CFF5018581D701A80F8E
:1025E000B11D85E0F60101900D928A95E1F7CDB716
:1025F000DEB7EAE00C94099EA0E0B0E0E2E0F3E18F
:102600000C94EF9DF82EEB016A018901E12C4E2D0F
:1026100061E08F2DA4DDE39423E2E212F8CFB8014C
:1026200088E497DAE091FB08F091FC08A081B18181
:1026300030E6F39EF0011124E058F14F82811896A4
:102640008C93E881F98180E091E0DF019C011D928B
:1026500021503040E1F7EE24E394E08282E281836E
:1026600088E4828391E3D80113969C931397149680
:102670008C93688179819801A6018F2D84DFE88190
:10268000F981E0A2E881F981E1A228813981E12C78
:1026900000E011E040E051E060E070E08F2D0E942A
:1026A0004446811106C02881398142E261E08F2DC4
:1026B0006CDACDB7DEB7E8E00C940B9ECF92DF92D8
:1026C000EF92FF920F931F93CF93C82F8B016A0154
:1026D000790140E062E143DD41E062E18C2F3FDDC2
:1026E000E091FB08F091FC080190F081E02D82E17F
:1026F000808381E0818381E4828392E3F701938385
:102700008483E091FB08F091FC086081718197015E
:10271000A6018C2F38DFA091FB08B091FC08ED9149
:10272000FC911197E755FF4F80EA8083ED91FC9172
:10273000E655FF4F8083F8012081318141E062E15D
:102740008C2F23DACF911F910F91FF90EF90DF90A4
:10275000CF900895CF93DF93D82FB0DFE091FB089F
:10276000F091FC080190F081E02D80E88383C0E0C7
:102770004C2F65E38D2FF3DCCF5FC331C9F7DF91B9
:10278000CF910895A0E0B0E0E8ECF3E10C94EF9D68
:10279000C82F6B017A018901D0E04D2F68E28C2FA0
:1027A000DEDCDF5FD430C9F7E091FB08F091FC0874
:1027B0000190F081E02DD8E2D083E091FB08F09108
:1027C000FC080190F081E02D82E08183B80184E46F
:1027D000C0D969E28C2F48DEE091FB08F091FC083B
:1027E0000190F081E02D1082E091FB08F091FC084F
:1027F0000190F081E02D8FEF8183B80184E4A9D9A5
:10280000E091FB08F091FC08828582608287D60106
:10281000ED91FC911197D08383E0818384E48283DE
:1028200093E3F801938384836D917C919801A701D0
:102830008C2FA9DED6012D913C91E12C00E011E016
:1028400040E058E166E070E08C2F0E944446811120
:1028500007C0F6012081318143E068E28C2F95D9D1
:10286000CDB7DEB7E8E00C940B9E20E6829FC00156
:102870001124FC01E158F14F80818F77823051F0B3
:10288000843089F0813019F480E091E00895643259
:1028900008F06352623150F0693158F06F3160F0E6
:1028A00081E190E0089588E290E0089585E190E06C
:1028B000089583E190E0089582E190E008958F9279
:1028C0009F92AF92BF92EF920F931F93CF93DF939C
:1028D00080911002882369F1C0910E02CF3F31F13F
:1028E000D0910F0240E06D2F8C2FD8D820E6C29FE8
:1028F000F0011124E857F14F80809180A280B380CD
:10290000880E991EA11CB11C6D2F8C2FAEDFEE24FA
:10291000E3948C0121E132E0B501A4018C2F0E94E7
:102920004446811105C01092100203C080E001C02E
:1029300081E0DF91CF911F910F91EF90BF90AF9009
:102940009F908F900895BF92CF92DF920F931F9325
:10295000CF93DF93082F10E090E6899FF0011124B8
:10296000E158F14F908197FF4DC090910E0289136D
:1029700005C090910F02961709F442C0B62EC82FD9
:102980009EDFD82F81113EC048E250E061E070E048
:1029900081E192E00E94799E8FEF80930E0240E0E9
:1029A0006B2D8C2F7BD86C0120E6209FC001219FCE
:1029B000900D11248C01025D114FF801EF5AFF4F69
:1029C00080818F7782508330E8F46B2D8C2F4DDF20
:1029D000F801E65AFF4F40815181628173814C0DAD
:1029E0005D1D611D711D8C0121E132E08C2F0E9463
:1029F0000846823038F4C0930E02B0920F0203C032
:102A0000D0E001C0D1E08D2FDF91CF911F910F91C8
:102A1000DF90CF90BF900895A0E0B0E0E2E1F5E153
:102A20000C94ED9DD82FC62FF42E6901662381F0FA
:102A300080E6D89FF0011124E058F14F828186177B
:102A400038F08D2F12DFAF2CB12CA816B90620F06C
:102A50004F2D6C2F8E2D10C06C2F8D2F74DF811198
:102A600015C0F501E25FFD4F83819EEF980F9A300C
:102A700038F44F2D6C2F8E5E0E948D3682E015C08B
:102A80008F3021F48AE40E947D37F8CF4F2D6C2FD0
:102A90008D2F04D8AC0160E070E0762F652F542FA5
:102AA000442796018D2F0E940846CDB7DEB7EAE095
:102AB0000C94099EEF920F931F93CF93DF93EC0139
:102AC000E881F98180818E8B81818F8B83E4E82E70
:102AD00000E011E09F01418160818D899DDF8823A5
:102AE00029F0CE010E94840C81E010C092E09B830B
:102AF000E881F98120819A85211104C021812A83EE
:102B0000906203C02FEF2A839F7D9A87DF91CF9138
:102B10001F910F91EF900895EF92FF920F931F93E3
:102B2000CF93DF937C018B01EA0181E090E00E946A
:102B30004D2384EF91E00E94AB91C8010E949C91CB
:102B4000B801645E7F4FF7018081D3D881111BC02B
:102B5000E881F9818091C70C8083E881F9818091B7
:102B6000C80C8183F70180818D8B8A852AE535E148
:102B70003E872D872CEB3DE03C872B87846080646B
:102B80008A87CE0197DFCDB7DEB7E6E00C940D9EC5
:102B9000EF920F931F93FC01862F642F422F208109
:102BA000318192E4E92E00E011E036DF1F910F91B0
:102BB000EF900895EF920F931F93CF93DF93EC0163
:102BC0008B818830C9F483E4E82E02E010E024EC25
:102BD0003CE04A81698188811FDF811127C0809193
:102BE000C40C882389F19091C50C992369F18983DC
:102BF0008091C50C8A831B821981112391F0088171
:102C000080E6089FF0011124E058F14F828181177E
:102C100040F0612F802F29DE2A8130E02817390704
:102C200038F04A81612F83E40E948D3681E00DC027
:102C3000BE016F5F7F4F802F5CD88111F7CF8B81F2
:102C40008F5F8B8380E001C08FEFDF91CF911F9169
:102C50000F91EF9008950F931F93CF93DF938C0103
:102C6000EB01C801A7DF81117AC08091C60C8111E8
:102C700008C08091C70C8823A1F3F801848180FFEC
:102C8000F0CF8DE2FE0111928A95E9F784E08B8FF7
:102C90008091C60C898B811102C080E202C08058ED
:102CA0008F7D898B8989982F9F70973018F0807F4E
:102CB0008760898BF80181819281A381B4818C8F97
:102CC0009D8FAE8FBF8F8E8D81508E8F8091E30C44
:102CD00090E0982F88272091E20C820F911D9B8B0A
:102CE0008A8B8FEF8C8B80E1E9ECFCE0DE010190B8
:102CF0000D928A95E1F78FE0FE01E80FF11D9081BA
:102D0000903A09F410828150B8F78091E10C6CE39D
:102D10000E94539D998F8091E00C68E10E94539D21
:102D2000988F8091DF0C90E001976FE170E00E9436
:102D3000739D8F5F8F8B8091DE0C90E001976CE02C
:102D400070E00E94739D8F5F8E8B8091DD0C64E636
:102D50000E94539D903508F49C599D8B80E0DF9133
:102D6000CF911F910F910895A0E0B0E0EAEBF6E15A
:102D70000C94EC9DB82EEB017A01C82ED12C80E684
:102D8000B89E80011124F801E158F14F80816881DB
:102D9000813059F5162F612F8B2D66DB2881892B09
:102DA00091F41F5F80E68C9DF0018D9DF00D112444
:102DB000E058F14F8381181711F0111101C011E093
:102DC0001213E9CF23C0121303C0F701008101C021
:102DD00000E0402F612F8B2D7DD9811102C00F5F44
:102DE000F8CF1883F701008387C00058114FF8010E
:102DF0008081681310C08B2D37DB892B49F48091BB
:102E0000EF0D811103C088E40E947D3781E075C019
:102E1000F801978002C0F8019680A12CF2E0FA1523
:102E2000A8F168818B2D20DB892BA1F58881F80121
:102E30009081891710F4815012C021E0280F288357
:102E400090E69C9DF0019D9DF00D1124E158F14FFD
:102E500090819F77933021F4253311F48E5F88831E
:102E60008881811107C0F80180818F5F8883F70115
:102E70001082A3949881F8018381891778F6808164
:102E800081508883F7011082A394C8CF83E0A816ED
:102E900009F4B5CFF7018081192D180F10836881CF
:102EA0008B2DE3DC212F30E02817390740F0181B69
:102EB00019F4F701108203C01150F701108303E6E3
:102EC000F701408168818B2D05D9181694F00150C7
:102ED00098F0F701208111E0120F108368818B2D8B
:102EE000C4DC212F30E02817390750F3F701108296
:102EF000E7CF002309F483CF80E0CDB7DEB7EBE066
:102F00000C94089EA0E0B0E0E8E8F7E10C94ED9D99
:102F10006C01EB01BC01CE0138DACE014BDE181694
:102F200014F481E0D8C0811108C08091C60C8111D1
:102F3000F4CF9B8191509B83CEC019810A815E01A1
:102F4000BFEFAB1ABB0AAE014E5F5F4FB501F60192
:102F500080810ADF8111E5CF89818093C40C8A8149
:102F60008093C50CD601FC90402F612F8F2D0E94BD
:102F70004E0DAC0160E070E0762F652F542F442792
:102F8000E12C02E010E024EC3CE08F2D0E9444464E
:102F90008111C7CF4A816981F6018081E0D8811112
:102FA000C0CFD601FC90B0E6FB9EF0011124E158A1
:102FB000F14F8081813061F080E2E4ECFCE0DF01E0
:102FC0001D928A95E9F78FEF8093C50C10E071C0D0
:102FD000F601468165818F2D0E944E0DAC0160E0A7
:102FE00070E0762F652F542F44274C5D5F4F6F4F55
:102FF0007F4F03E010E024EC3CE08F2D0E94084658
:1030000081118FCF6091C40C6623B1F2D601FC9080
:103010004091C50C8F2D0E944E0D4091C60C50E082
:1030200060E070E0445E5F4F6F4F7F4FA0E0B0E024
:10303000BA2FA92F982F8827480F591F6A1F7B1F67
:1030400002E010E027EC3CE08F2D0E940846811141
:1030500068CF8091C70C9091C80C01969093C80CD2
:103060008093C70CF601F0804091C50C6091C40CB0
:103070008F2D0E944E0D4091C60C50E060E070E034
:10308000445E5F4F6F4F7F4FA0E0B0E0BA2FA92F93
:10309000982F8827480F591F6A1F7B1FEE24E3943F
:1030A00027EC3CE08F2D0E944446882309F484CF0E
:1030B00038CF1B8340E0B501D6018C910E944E0EA3
:1030C00081112FCF1092C50C1F5F183091F79FEF21
:1030D0009093C50C1B82CDB7DEB7EAE00C94099E35
:1030E000A2E0B0E0E6E7F8E10C94EE9D6C01DC01B3
:1030F00056968C9156978A8357968C9157978983C9
:1031000058968D919C915997019659969C938E93C0
:103110005897ED91FC9111971082ED91FC911197C8
:1031200012968C9112978183AE014F5F5F4FBE0163
:103130006E5F7F4F55968C9117DE882321F01A829F
:10314000F090EF0D13C0D601ED91FC9111978A819B
:103150008083ED91FC911197498141836A81559655
:103160008C910E94AF10811130C0F12CF601B5880E
:10317000478966898B2D0E944E0DD6012D913C9179
:10318000AC0160E070E0762F652F542F4427EE24C9
:10319000E39400E011E08B2D0E944446182F81112A
:1031A00014C08A81F601868B8981878B82E08383B4
:1031B00081E0828382858D7F8287C6010E943A0DDD
:1031C000FF2039F08F2D0E947D37C6010E94840CAC
:1031D00011E0812F2296E9E00C940A9EA2E0B0E073
:1031E000E4EFF8E10C94EF9DF82EE62E042F0E94F8
:1031F0006A1087FF02C011E060C0882311F010E060
:103200005CC09E012F5F3F4F40E06E2D8F2D0E94CE
:103210008B0F182F8111EFCFE091FB08F091FC0884
:1032200082858260828780E6F89EF0011124E15851
:10323000F14F9081802F869586958695E981FA8158
:103240000770E80FF11D913061F480E890E0002EE6
:1032500002C0959587950A94E2F79081892B808327
:103260002CC081E090E0002E01C0880F0A94EAF79C
:103270009081892B80839E012F5F3F4F41E06E2D0F
:103280008F2D0E948B0F182F8111B5CFC980DA8046
:10329000F60100816E2D8F2DE8DA202F30E02817FF
:1032A000390708F0ACCF0F5FF6010083E091FB080F
:1032B000F091FC08828582608287812F2296E8E067
:1032C0000C940B9EA5E1B0E0E8E6F9E10C94EB9DCF
:1032D0006C017B01DC01EC91B0E6EB9FF001112465
:1032E000E158F14F8081813011F08FE11DC00E94C3
:1032F0000B0C5C01892B09F428C1BE016F5F7F4F65
:10330000C60100DE811121C1F60185818D8B868188
:103310008C8BAE014C5E5F4FBE016B5E7F4F808138
:1033200023DD882321F088E40E947D370EC14C897B
:103330006D89D6018C910E94AF10811106C18D89D3
:103340008B8B8C898A8BAE014E5E5F4FBE016D5EAA
:103350007F4FF601808108DD882349F088E40E94D0
:103360007D374C896D89D6018C9138DFEEC04A8952
:103370006B89F60180810E94AF108111E6C0D501F2
:10338000ED91FC9180E091E0DF019C011D922150C4
:103390003040E1F7D5018D919C9149E150E060EA20
:1033A00070E004960E94799ED501ED91FC911197F1
:1033B0008B8980838A89818388E48283ED91FC9163
:1033C0008D8980A38C8981A3D60115968C91159740
:1033D00082A316968C9183A38A8184A38B8185A373
:1033E0008C818295880F807E8E5F86A34701D501F0
:1033F000ED91FC913496D7018D91882311F0819342
:10340000FBCFD501ED91FC91D7018C91868B119664
:103410008C91878B81E3818F88E4828FF601F08025
:103420004C896D898F2D0E944E0DD5012D913C91B7
:10343000AC0160E070E0762F652F542F4427E12C1B
:1034400000E011E08F2D0E94444681117EC0D5011D
:10345000ED91FC9180E091E0DF019C011D922150F3
:103460003040E1F7D501ED91FC918FEF8183F601BA
:10347000F0804A896B898F2D0E944E0DD5012D91C8
:103480003C91AC0160E070E0762F652F542F44270B
:103490008F2D0E944446811158C08FE1E6ECFCE07C
:1034A000DF011D928A95E9F740E150E060EA70E0A3
:1034B00089EC9CE00E94799EE9ECFCE0D4018D91BE
:1034C0004D01882311F08193F9CF86E88093C60CD3
:1034D0008D898093C70C8C898093C80C82E080937F
:1034E000E20C82E58093DD0C88E08093DE0C8FE1B6
:1034F0008093DF0C1092E00C1092E10CF601D0806A
:103500004B816A818D2D0E944E0D4C81F0E24F9FC0
:10351000A0011124052E000C660B770B4E5F5F4F48
:103520006F4F7F4FA0E0B0E0BA2FA92F982F8827C8
:10353000480F591F6A1F7B1FEE24E3940EE110E031
:1035400026EC3CE08D2D0E9444466596ECE00C9400
:10355000079EAF92BF92CF92DF92EF920F931F938D
:10356000CF93DF931F921F92CDB7DEB76C015B0143
:103570008CE1A80EB11CB501F60180810E94790E84
:10358000882311F08FEF27C08091C70C8983809129
:10359000C80C8A834A816981F60180811FDE83E439
:1035A000E82E02E010E09E012F5F3F4F4A816981C3
:1035B000F601808131DA8111E5CF89818111EACF6D
:1035C0001092C60C41E0B501F60180810E944E0EBA
:1035D0008111D8CF81E00F900F90DF91CF911F9193
:1035E0000F91EF90DF90CF90BF90AF900895EF9242
:1035F000FF920F931F93CF93DF937C01D62FC42F9D
:10360000122F442389F080E6689FF0011124E058CE
:10361000F14F8281841740F0642F8D2F26D9212FFE
:1036200030E02817390730F0412F6C2F82E40E94D8
:103630008D3616C0412F6C2F8D2F0E944E0DF70135
:1036400020813181AC0160E070E0762F652F542F2E
:103650004427EE24E39400E011E08D2F0E944446BD
:10366000CDB7DEB7E6E00C940D9EA1E1B0E0EBE350
:10367000FBE10C94E89D6C015B01142F7901DC01E6
:10368000EC91B0E6EB9FF0011124E25DF14F83A9CC
:1036900081FD02C08AE1F3C0002309F46CC0A901D6
:1036A000C6013ADA8091EF0D81110EC0D701ED917C
:1036B000FC918081882341F0D7011D96ED91FC910A
:1036C0001E97C7011995EECF81E090E0E6D787EF0E
:1036D00091E00E94AB91C5010E949C918091EF0DF9
:1036E000811123C1F501848D958DA68DB78DF701CC
:1036F000818B928BA38BB48B8091E30C90E0982FFD
:1037000088272091E20C820F911D0197918F808F65
:1037100082858B7F828792819F5F9383911103C003
:103720008260828702C08D7F828780E798E1F701FF
:103730009687858789E29FE0908B87878CEB9DE059
:1037400094878387828588608064828782E58093FE
:10375000DD0C88E08093DE0C8FE18093DF0C10920B
:10376000E00C1092E10CB7016F5E7F4F41E085895C
:103770000E944E0EDAC0BE016F5F7F4FC601C2DBF2
:103780008111D3C08FE1E6ECFCE0DF011D928A9548
:10379000E9F740E150E060EA70E089EC9CE00E94CB
:1037A000799EF501A9ECBCE08191882311F08D93FD
:1037B000FBCF1093C60CF6015080852C912C20E68F
:1037C000529EF0011124E158F14F8081813011F0B7
:1037D00001E029C012E0612F852D0E943412892B4F
:1037E00009F03FC01F5F80E6889DF001899DF00DC4
:1037F0001124E058F14F8381181729F0112319F093
:10380000123049F792C011E0E6CF102FD5016C912C
:10381000601B852D0E943412892BD1F4019510165E
:1038200014F401E0011B602E002E000C770820E646
:10383000289DC001299D900D11249C012058314FD5
:103840005901D90113968C9190E068167906ECF233
:10385000F501838190E06816790661F0F501108129
:10386000101B00E0612F852D00D8202F30E0281795
:10387000390740F08091EF0D811157C088E40E9414
:103880007D3753C0402F612F852D0E946A10181676
:1038900014F00F5FE7CF1093C70C0093C80C402FB4
:1038A000612FF60180810E94AF1081113EC082E538
:1038B0008093DD0C88E08093DE0C8FE18093DF0C39
:1038C0001092E00C1092E10C41E0BE016E5F7F4F60
:1038D000D6018C910E944E0E811127C0F70182857E
:1038E00088608064828782E08383828389E29FE0AC
:1038F000908B878780E798E1968785878CEB9DE0A2
:10390000948783870190F081E02D8DE082838A8106
:103910009B81AC81BD81F701818B928BA38BB48B92
:10392000D6018C91858B168B078B6196EFE00C94FA
:10393000049EA0E0B0E0EFE9FCE10C94E79D6C018F
:103940009B01DC019C91E92EF12CB0E69B9FC0010C
:103950001124FC01E25DF14F83AC94ACA5ACB6AC94
:10396000E6E58E16EBE59E06E5E0AE06B10469F1EC
:1039700090F4811446E5940645E0A406B104D9F517
:103980004EE050E066E372E08058914F0E94459E01
:10399000F3E0BF2EC3C08114A0E89A06ACE0AA06EB
:1039A000B104F1F0B0E88B16BCE89B06BCE0AB06B6
:1039B000B10409F54EE050E068E272E08058914FA2
:1039C0000E94459E64E8B62EA9C04EE050E066E332
:1039D00072E08058914F0E94459EE3E8BE2E9EC043
:1039E0004EE050E068E272E08058914F0E94459EA0
:1039F00074E0B72E93C0D501C4019B5AA240B1090F
:103A000083329A47A105B10508F04FC08114910493
:103A1000F3E0AF06B10469F46EE270E0C9010E9400
:103A2000A19E009731F0DC0112968C918E3409F43E
:103A300041C084011B5A81100AC0C12FDD27CE016D
:103A400061E170E00E945F9D892B09F4A4C04424C9
:103A50004394542C612C712CC501B401A301920133
:103A60000E94869D672B682B692B21F5C4018B5A18
:103A70009D4A61E071E00E945F9DCB0161E170E0D1
:103A80000E945F9D892BB1F4C801A0E0B0E0BC01A9
:103A9000CD016B5A724081099109A30192010E94E4
:103AA000A89DE90132E8B32E78C081149104A104E5
:103AB000B10441F0D501C401AA27BB27892B8A2B69
:103AC0008B2B21F08FE40E947D3761C0811491041B
:103AD000A104B1E0BB06B0F780E68E9DE0018F9DAA
:103AE000D00D11244EE050E06AE172E0CE01805822
:103AF000914F0E94459EA50166277727CE01825DE2
:103B0000914FFC01EC5AFF4F40833196408335962C
:103B100080829182A282B382BB24B3948091FB08FD
:103B20009091FC08892BA1F40E94EA0BFC01909370
:103B3000FC088093FB08892B51F185E684838FEF85
:103B4000818B85E092E1908B878782858064828774
:103B500080E68E9DF0018F9DF00D1124DF01A158AC
:103B6000B14FBC92E058F14F8081D60115968C93ED
:103B70001597818116968C938091F8088F5F8093BA
:103B8000F808B7FE06C08FEF80930E0202C081E0F6
:103B900030C080E02EC092E0B92E80E68E9D80017C
:103BA0008F9D100D11244EE050E064E472E0C801D6
:103BB0008058914F0E94459E025D114FF801EC5ACA
:103BC000FF4FCE0161E170E00E945F9D8081680F30
:103BD00060833696DC2FCC2780819181A281B381CE
:103BE0008C0F9D1FA11DB11D80839183A283B38380
:103BF00095CFCDB7DEB7E0E10C94039ECF93DF9372
:103C0000EC01FB01A081B1818D818C93A88180E6BC
:103C1000A89FD0011124A158B14F8C91A081B181EE
:103C2000813021F48E8111968C9302C011961C92E2
:103C30008881858B82852AE535E1368725872CEBBF
:103C40003DE034872387846080648287CF010E94AF
:103C50005A15DF91CF910895CF938091FB089091F1
:103C6000FC08009741F0DC011F96ED91FC91509704
:103C70001995C82F01C0C0E08091F9089091FA0809
:103C8000009739F0DC011F96ED91FC915097199542
:103C9000C82B0E945F148C2BCF9108958091FB0854
:103CA0009091FC080E94840C1092FC081092FB0872
:103CB0008091F9089091FA080E94840C1092FA08F9
:103CC0001092F9081092F808EEE0F2E08FEF80838E
:103CD00012820895CF93C82F8091FB089091FC0821
:103CE000009779F0DC011F96ED91FC9150971995A2
:103CF000E091FB08F091FC0881898C1302C08FEFE2
:103D0000818B8091F9089091FA08009779F0DC0195
:103D10001F96ED91FC9150971995E091F908F0915B
:103D2000FA088189C81302C08FEF818B8091F8084F
:103D300081508093F808811114C08091FB08909104
:103D4000FC080E94840C8091F9089091FA080E9466
:103D5000840C1092FC081092FB081092FA08109242
:103D6000F90880910E02C81305C00E945F148FEFFE
:103D700080930E02CF910895DF92EF92FF920F93FE
:103D80001F93CF93DF9390E6899FF0011124DF0109
:103D9000A25DB14FD196CD91DC91D297CA5FD1404F
:103DA00009F5AF5ABF4FDC909D2D9F77913011F4EC
:103DB00080E03BC0F22EE42EC62FD82F662369F098
:103DC000E058F14F8281861740F08D2F0E94351404
:103DD0000E2D10E00817190738F04E2D6C2F82E4D5
:103DE0000E948D3681E021C0D7FE07C06C2F8D2F39
:103DF0000E94A314882379F0F5CF81E0F816C1F270
:103E00000E940B0C009771F3BC018D2F0E94EC0DEA
:103E1000882361F3E7CFF801E25FFD4F9381F91644
:103E200039F2F38291E090931002CDB7DEB7E7E06C
:103E30000C940C9EA0E0B0E0E0E2FFE10C94EE9D5B
:103E4000F82E6B01B42EC0E0D0E06B2D8F2D0E94B8
:103E50003514C817D90738F54C2F6B2D8F2D0E94BC
:103E60004E0DF60120813181AC0160E070E0762FCB
:103E7000652F542F4427E12C00E011E08F2D0E9484
:103E80004446811112C080E6F89EF0011124E158E9
:103E9000F14F808187FF05C021E04C2F6B2D8F2DC6
:103EA0006BDF2196D2CF80E001C081E0CDB7DEB7D5
:103EB000E9E00C940A9EA5E0B0E0E1E6FFE10C9495
:103EC000EA9DDC017C90A72CB12CB0E67B9EF00132
:103ED0001124E25DF14FDF01AF5ABF4F2C91213029
:103EE00041F427A5213009F09DC020A9213009F017
:103EF00099C07A016B014C010E940B0C8C01009758
:103F000009F490C0FC01828588608F7B8287C8019C
:103F10000E94290DD801ED91FC9180E091E0DF0134
:103F20009C011D9221503040E1F796DEE091FB08A4
:103F3000F091FC088FEF818BE091F908F091FA087D
:103F4000309709F0818BE114F10409F188248394FE
:103F5000912C80E68A9DF0018B9DF00D1124E05894
:103F6000F14F828190E08815990550F0482DB801F5
:103F7000872D60DF811156C03FEF831A930AE9CF86
:103F8000D7018C91898311968C918A8316C0BE01CA
:103F90006F5F7F4FC4010E946611811143C080E6AC
:103FA0008A9DF0018B9DF00D1124E058F14F408166
:103FB000B801872D3FDF811135C080EA8B83EE2465
:103FC000E394F12C20E62A9DC0012B9D900D112435
:103FD000FC01E058F14F238130E02E153F05A8F099
:103FE000812C912C6E2D872D0E94351488169906F0
:103FF00040F4482D6E2D872DF1D8BFEF8B1A9B0A08
:10400000F1CFEFEFEE1AFE0ADDCFFC01E457F14FDE
:104010000190F081E02D9E012F5F3F4FA601B80176
:10402000872D19952596EDE00C94069E6F927F9250
:104030008F929F92AF92BF92DF92EF92FF920F9377
:104040001F93CF93DF9320E6829FE0011124FE01AE
:10405000E058F14F1281161708F06DC0F62ED82ED9
:10406000C25DD14F89A99AA98A5F914031F4FE01BE
:10407000EF5AFF4F8081823021F08FE40E947D371C
:104080000DC0FAE2F61728F440E082E40E948D3673
:1040900005C00E940B0C5C01892B11F481E04CC01F
:1040A00040E061E06F0D8D2D0E944E0D4E012AE51E
:1040B000820E911CA0E0B0E0BA2FA92F982F88277C
:1040C000F40180839183A283B383B5018D2D0E9477
:1040D000EC0D8111E3CF8F2D90E0811B910921E13F
:1040E000289F3001299F700C1124A30163E070E028
:1040F000F501808191810E94799E61E0610F40E02D
:104100008D2D0E944E0DF50120813181F4014081F9
:10411000518162817381480F591F611D711DEE2409
:10412000E39483018D2D0E9444468111B7CFCC5A70
:10413000DF4FF88201C080E0DF91CF911F910F9196
:10414000FF90EF90DF90BF90AF909F908F907F9007
:104150006F90089590E0992329F080FD03C081FDC0
:1041600008C008C0209102012F7E20930201911106
:10417000F6CFA5984091B30F5091B40F465F5F4FB3
:104180002091B30F3091B40F241B350B37FDF8CFBE
:1041900020910201206120930201A59A4091B30F62
:1041A0005091B40F465F5F4F2091B30F3091B40F21
:1041B000241B350B37FDF8CF9F5F923061F60895D1
:1041C000A2E0B0E0E6EEF0E20C94E99D7090EF0D15
:1041D0001092EF0D85E00E94B70C0E940B0C009727
:1041E00009F4CCC0FC01C080D180F59AF601E958F1
:1041F000FF4F1082F12CE12CA12CB12C8091FD08F5
:104200008F1508F47EC0A50160E070E085E099E0BC
:104210000E94305781110CC09E012F5F3F4F47E72E
:1042200050E0B60185E099E00E946D54882321F0AA
:1042300061E00E946239A2C089819A818737910525
:1042400020F4F601E80FF91F108289819A81892BE9
:1042500029F08601612C90E0E12C17C08091FD08C7
:104260008F3F29F4FA94F092FD08F12CC5CF1092FB
:10427000FD08FBCF8D30C9F08A30B9F08A3389F060
:104280008B3341F0803251F48F01F801819181111B
:10429000F1CF13C0992309F475C005C08930A1F38B
:1042A00002C0EE24E39491E0EFCFF8014F01819139
:1042B0008D30E1F38A30D1F301C04801A114B1047B
:1042C00061F448E050E062E572E0C6010E94389E69
:1042D000892B19F4F598662463948C189D08A80C12
:1042E000B91C61108BCFF394F8011082A8014C190E
:1042F0005D094F5F5F4FB6018AEF9CE00E94709EA0
:104300007DCF8091FE0890E6899FF0011124E25D47
:10431000F14F21A932A92259394011F00E94754468
:10432000A091FE08A0932C0EF0E6AF9FD0011124BF
:10433000A75AB14F86E0EFEFF8E001900D928A9511
:10434000E1F7E1100AC08091FA0C8F3231F08AE374
:104350008093F90C09EF1CE002C00AEF1CE0F59B0A
:1043600003C0C8010E942A9DC80148D48091EF0D66
:10437000882331F0893421F07092EF0D80E005C080
:1043800081E003C0662463948ECF2296EEE00C9405
:10439000059EFF920F931F93CF93DF93EC018B0148
:1043A000F42EF2988091070990910809892B59F011
:1043B00085E099E00E9425578EE1E5E0F9E0DF0114
:1043C0001D928A95E9F7F80180818823B1F149812E
:1043D0005A816B817C81E88180E68E9FF0011124F7
:1043E000E25DF14F468B578B608F718F9881899F6B
:1043F000C001112421E0A80165E079E0825D914FC0
:104400000E941353882321F061E00E94623915C095
:1044100087E0FE01AEEFB8E001900D928A95E1F7DA
:10442000FF2021F08FEF8093FD0802C01092FD085D
:10443000C7DE882311F083E08DDECDB7DEB7E5E07F
:104440000C940E9E40E0A5CF0895A3E6B0E0EBE209
:10445000F2E20C94F49D8091070990910809892B50
:1044600009F0D7C067E672E084EC9CE00E944E9EA3
:1044700080912C0E90E6899FF0011124E75AF14FAC
:1044800096E0ABE5B0E0AC0FBD1F119601900D9228
:104490009A95E1F76C968FAF6C978091B10F81FF81
:1044A00002C041E001C040E064EC7CE0CE01855AEE
:1044B0009F4F6FDF8091070990910809892B09F0C0
:1044C000A2C08091B10F82FF9AC06AE572E0CE016E
:1044D000855B9F4F0E944E9EA0964CAD5DAD6EAD2C
:1044E0007FADA0976C968FAD6C9710E6189FC001BA
:1044F00011249E01255C3F4F825D914F0E94A3587D
:1045000081117DC06C968FAD6C97189FC0011124EE
:104510002AE0AE01455B5F4FBE016F5F7F4F825D5A
:10452000914F0E94135381116AC0A59884EC9CE0BE
:104530009AAF89AF10E0BE01615E7F4FCE01CB968E
:104540000E94D65881114BC08CA5882309F447C01E
:104550008FA184FDF0CFCE018C960E94E23F8E7138
:1045600051F38091C40C811104C0BE01645D7F4F82
:1045700002C064EC7CE0FB0101900020E9F7319778
:10458000AF01461B570B9E012E593F4FCE0101969E
:104590000E948F55882311F011E021C0A4968EADA2
:1045A0009FADA497892BC1F38DE08CA78AE08DA7DE
:1045B0009E012E593F4F42E050E0BE01645D7F4FA7
:1045C000CE0101960E948F558111E6CF11E0A4968D
:1045D0008EAD9FADA497892B09F0ADCFDDCFCE0175
:1045E00001960E942557A59A112349F040E0BE018B
:1045F000655B7F4FCE01855A9F4FCBDEF29A80E0FC
:104600000E947D3701C0F29A8091B10F1092B10FD4
:1046100036C08091B10F80FF0FC08091FD088F5F81
:104620008093FD088091B10F8E7F8093B10FC8DD1C
:10463000882329F182E022C08091B10F81FF0FC051
:104640008091FD0881508093FD088091B10F8D7F8E
:104650008093B10FB5DD882391F081E00FC0809188
:10466000B10F82FF0CC01092FD088091B10F8B7FBB
:104670008093B10FA5DD882311F083E06BDDCD5968
:10468000DF4FE3E00C94109E8EE1E5E0F9E0DF01FE
:104690001D928A95E9F7F29808950F931F93CF938F
:1046A000DF938C010E942E92882379F0602F80E0A6
:1046B0000E947091C4E1D0E080E20E948291219733
:1046C000D9F7602F80E00E947091DF91CF911F9108
:1046D0000F910895CF93DF93EC010E942E928823CF
:1046E00031F089910E945891CE010E949C91DF91F6
:1046F000CF910895CF93DF930E942E92882391F05B
:1047000080E40E945891C3EBD2E08AEA8A95F1F7DF
:1047100000C0FE0184910E9464912196F2E0C33FA3
:10472000DF0799F7DF91CF9108950F931F93CF93F0
:10473000DF930E942E92882319F1DCDF0E947B9187
:1047400060E080E00E94709103EB12E0C3EAD2E0E7
:10475000FE0184910E94829121960C171D07C1F7DA
:1047600061E080E00E94709103EA12E0C3E9D2E0C8
:10477000FE0184910E94829121960C171D07C1F7BA
:10478000DF91CF911F910F9108950E942E9288235F
:1047900049F1B0DF0E947B9180E00E94829181E02C
:1047A0000E94829182E00E94829161E080E00E94FA
:1047B000709183E00E94829184E00E94829185E062
:1047C0000E94829160E084E00E94709189E892E00A
:1047D0000E94AB9161E084E00E9470918DE792E0CD
:1047E0000C94AB910895CF93C82F0E942E928823EA
:1047F000B9F081E090E051DF86E792E00E94AB9152
:104800008C2F6AE00E94539D805D8093E70C905D41
:104810009093E80C1092E90C87EE9CE00E949C912A
:10482000CF910895CF93DF93EC010E942E928823BD
:10483000C9F080E090E031DF8091EA0C811102C084
:1048400084E401C089E48093E70C1092E80C87EEC1
:104850009CE00E949C9184E792E00E94AB91CE0183
:104860000E949C91DF91CF910895CF93C82F0E9411
:104870002E928730A1F4C093EB0C89E20E945891EC
:104880008C2F807382958F7080650E9458918C2F39
:104890008F7080670E94589188E20E945891CF9152
:1048A00008958091F10C90E04AE750E0481B590BC5
:1048B00060E070E08750934F0C94799E0895A6E0D5
:1048C000B0E0E5E6F4E20C94EF9DEBDF6DE270E022
:1048D00089EF9CE00E94809E7C01892B09F4CEC068
:1048E0008E010F5F1F4F84E0D8011D928A95E9F772
:1048F0006AE370E089EF9CE00E94809E9E838D8336
:10490000892B79F4E9EFFCE001900020E9F7319779
:10491000E95FFC40339708F4B4C08BEF9CE09E83C2
:104920008D838D819E8101969E838D83680110E029
:10493000ED81FE8180818823D1F01430D9F0ED81A2
:10494000FE818081803221F43196FE83ED83F7CFA2
:104950008D31D1F38C32C1F3882349F01F5FCE0132
:1049600005960E94D397F60181936F01E1CF1F3F17
:1049700009F487C0D70111968C91823531F08735C3
:1049800021F0803509F07AC055C089810E94090D57
:104990008C01892B11F486E472C0F7018181823584
:1049A00049F5D80151966C91B0E66B9FF001112446
:1049B000E25DF14F01A8F2A9E02D7096A591B491A6
:1049C0002C814B81C801FD0119958091F90C82342D
:1049D00061F481E0D80113968C931397ED91FC91CB
:1049E0001197808112968C934CC0F80113828FEF3F
:1049F000828347C08091F90C823441F4D801ED9153
:104A0000FC91119713968C9181508083F8016189F4
:104A100080E6689FF0011124E25DF14F01A8F2A940
:104A2000E02D7296A591B4912C814B81C801FD01B6
:104A3000199527C089810E94090DFC01892B09F471
:104A4000AACF82898130B9F08B81498193E6941B8A
:104A500094830388F489E02D815048F025893689B4
:104A60002115310511F423893489F901F5CF4483E7
:104A700082858D7F82878A81838303C08FE10E9434
:104A80007D372696E8E00C940B9EA0E0B0E0EBE4C6
:104A9000F5E20C94EF9DE0902809F090290900912F
:104AA0002609109127092E2D281B30E0C62FD0E0B3
:104AB000C21BD30B0C171D0708F4E8016E01DD249F
:104AC000D0912509E0912309F091240980819181F9
:104AD000B9016150734FA6018D0F911D0E94709E08
:104AE000CD0FC0932509EC0CFD1CF0922909E09232
:104AF0002809C8018C199D099093270980932609DC
:104B0000892B21F41092240910922309CDB7DEB726
:104B1000E8E00C940B9EEF92FF921F93CF93DF93EC
:104B20007C018091F00D811118C084E493E00E9413
:104B3000ED0A8F2D0E94CD0A8E2D0E94CD0A8DE3A5
:104B400093E00E94ED0A80913A020E94CD0A809182
:104B500039020E94CD0A0E94FB0A8091F00D81115A
:104B600004C080912A098093F00DC4EBD3E0FE01CC
:104B70003396259134918091F00D2115310579F40A
:104B800081110AC04091390250913A02652F77276E
:104B900082E60E948D3620C01092F00DE6CFFE0115
:104BA00032961491181316C0FE0185919491E8165F
:104BB000F90681F4FE0135968491F901199588234F
:104BC00049F08091F00D811107C0112329F0109355
:104BD000F00D02C02696CBCF8FEF9FEF90933A0255
:104BE000809339028091F00D80932A091092F00D84
:104BF000DF91CF911F91FF90EF900895A6E3B0E071
:104C0000E4E0F6E20C94F39D8C0121E0AE014B5CF4
:104C10005F4FBE01625D7F4F0E94F396811146C0D7
:104C20008091EA0C811103C08DA99EA9FBDD109231
:104C3000F80D6DA97EA9FB018081882341F18F3594
:104C400029F4CE0101960E948B9E0AC09E012F5F1F
:104C50003F4F40E2CE018E960E94BE96811126C043
:104C6000EEA580E6E89FF0011124E25DF14F01A876
:104C7000F2A9E02D7C9625913491BE016F5F7F4FA4
:104C8000CE018E96F9011995811110C00BC06FE20B
:104C900070E0C8010E94809E892B21F487E20E9467
:104CA0007D3704C0CE018E960E94A295E696E4E080
:104CB0000C940F9EA6E7B0E0E0E6F6E20C94ED9DC2
:104CC00080E00E947D374091F10C483729F480E262
:104CD0000E947D370C9427308091F00D811107C020
:104CE00050E060E070E089EF9CE00E94000B3091A2
:104CF000F10C3093F20C332359F0E32FF0E0E8503D
:104D0000F34F80818D3021F48FEF830F8093F10C6E
:104D10002091F10C211105C08FE10E947D370C9488
:104D200027309091FA0CE091F90C943409F022C1EB
:104D3000223008F41FC1E83509F41CC1B2DD8091AE
:104D4000F90C8D3439F0823509F442C0833409F00E
:104D50000CC130C06AE370E089EF9CE00E94809E45
:104D6000892B29F482E20E947D370C94273020E0C1
:104D7000AE01425D5F4FBE016F5F7F4F8BEF9CE0E6
:104D80000E94F39681110C942730E98120E6E29F7E
:104D9000F0011124E25DF14F01A8F2A9E02D7A960D
:104DA000259134916EA57FA5CE010196F901199543
:104DB0000C9427308BEF9CE021DFF29902C00C9419
:104DC000273061E070E080E090E03CDB0C9427301D
:104DD0006FE270E089EF9CE00E94809E892B29F0B1
:104DE00082E20E947D370C9427308BEF9CE0E596A1
:104DF0009FAF8EAFE597CE018D589F4F0E94C5950E
:104E0000E5966EAD7FADE597DB019C919A3329F075
:104E100082E20E947D370C942730DE01A459BF4FF7
:104E20008D93082F10E080E6F82EF09EF001F19EA1
:104E3000F00D1124E75AF14F86E001900D928A950A
:104E4000E1F76F5F7F4F9E01225D3F4F46E0CE014D
:104E500084599F4F0E94BE9681110C942730AD96C5
:104E6000EFADAD97FE9EF0011124E25DF14F01A878
:104E7000F2A9E02D7C9625913491BE01625D7F4FB1
:104E8000CE0184599F4FF901199581110C94273057
:104E9000AD96EFADAD97FE9EF0011124E25DF14FAE
:104EA00001A8F2A9E02D769625913491BE016459AE
:104EB0007F4FCE01855A9F4FF901199581110C94AE
:104EC00027306C96EFAD6C97FE9EF0011124E25DE9
:104ED000F14F01A8F2A9E02D789625913491BE01F9
:104EE0006F5F7F4FCE01855A9F4FF90119958F3F14
:104EF00051F08091EF0D81110C9427308FE30E94C7
:104F00007D370C942730F09EF001F19EF00D1124B6
:104F1000E75AF14F86E0ACE6B0E0AC0FBD1F11964A
:104F200001900D928A95E1F7AD96EFADAD97FE9E9B
:104F3000F0011124E25DF14F01A8F2A9E02D3696AF
:104F400025913491BE01625D7F4FCE0184599F4F00
:104F5000F90119958F3F11F40C94273040E0682F28
:104F600081E00E948D360C9427308EE10E947D37BF
:104F70000C9427304E2F50E0FA01E254F109E7314A
:104F8000F10510F00C941B308827EE58FF4F8F4F1F
:104F90000C94C49D94DC0C942730903531F0903DF6
:104FA00051F58091FB0C815009C07BDC8BEF9CE0BC
:104FB0009A838983CE0101960E94C59590912D0E0A
:104FC00011E0180F891738F040E0612F8DE40E943E
:104FD0008D360C94273080932C0EF29B05C061E037
:104FE00070E080E090E02EDA40E0612F82E00E94E5
:104FF0008D360C94273055DC6DE370E089EF9CE032
:105000000E94809E009749F4E7961FAE1EAEE79778
:105010008EE10E947D370C9427309C012F5F3F4F1B
:10502000E7963FAF2EAFE797DC011C9220E0AE0180
:105030004D585F4FBE01625D7F4F8AEF9CE00E943A
:10504000F39681110C942730E5968EAD9FADE597D0
:10505000FC012081211104C082E20E947D37F7C744
:105060000E94B3958111D4CFE5966EAD7FADE597E3
:10507000AE014F5F5F4F5A019A0140E2CE018E961A
:105080000E94BE96811104C08FE30E947D37DFC766
:1050900018160CF4DCC780E00E947D370E940B0CD0
:1050A0007C010E940B0C6C01E114F10409F4CFC7E0
:1050B000892B09F4CCC7AE0144595F4F6CE2E796E7
:1050C0008EAD9FADE7970E940A9DE7969FAF8EAF8A
:1050D000E79710E0E7968EAD9FADE797009709F44C
:1050E0002AC120E0AE014B585F4FBE01655A7F4F89
:1050F0000E94F39681111FC1E7966EAD7FADE797D1
:10510000950140E2CE01855A9F4F0E94BE968111C3
:1051100012C18A898770843001F5812F8B7F21F03D
:1051200080E40E947D3707C16C96EFAD6C9750E626
:10513000E59FF0011124E25DF14F01A8F2A9E02DF5
:105140003496A591B49101E020E0A701B501CE010C
:10515000855A9F4FFD01199517C0143009F36C96BD
:10516000EFAD6C9720E6E29FF0011124E25DF14F74
:1051700001A8F2A9E02D25913491A701B501CE0136
:10518000855A9F4FF90119958091EF0D8111D3C078
:1051900011113DC01A8917708DE2D5011D928A95B3
:1051A000E9F7E5966EAD7FADE59740E150E0C501CA
:1051B0000E94929EEEA51430B1F4B0E6EB9FF00190
:1051C0001124E25DF14F01A8F2A9E02D3496A591DA
:1051D000B49101E0F7012581A601B501CE018E96BB
:1051E000FD01199514C020E6E29FF0011124E25D53
:1051F000F14F01A8F2A9E02D3296A591B49100E0FB
:105200009601412FB501CE018E96FD011995D6016B
:105210001396EC91143021F4D70115960C9102C02D
:105220000E2F0195D70112968C91129713969C918F
:10523000402F50E0282F30E0692F70E0261B370BFD
:105240002F5F3F4F241735071CF48F5F082F091B72
:10525000202F30E08E2F90E040E051E0481B590BAA
:105260004217530714F40E2F0195F6012081318166
:10527000402F50E0D701ED91FC916E0F7F1F820F00
:10528000931F0E94709EC6010E94290DF701838121
:105290008150800F8383D60113968C911397800FD2
:1052A00013968C931397815012968C93828585FF69
:1052B00004C093818281981759F1F7018581882371
:1052C00051F0D7011D96ED91FC911E97C7011995DC
:1052D000882349F030C0F701838191E0980F9383D0
:1052E0009281891771F3D60115968C9115978111CA
:1052F00004C013968C9181118ACFD6011D96ED9131
:10530000FC911E97C6011995882309F480CF13C01C
:10531000C7010E94AC0C0E940B0C7C01AE014459E9
:105320005F4F6CE280E090E00E940A9DE7969FAF9D
:105330008EAFE797CFCED7011F96ED91FC91509796
:10534000C7011995C6010E94AC0C81C68091FB0C67
:105350000E94090DFC01892B21F486E40E947D370F
:1053600076C68289823040F0948183E6891B8483EB
:105370000388F489E02D948313828FEF82838091D8
:10538000FC0C2091FD0C3091FE0C4091FF0C5091D3
:10539000000D9091FA0C9235E1F09735A9F199340E
:1053A00009F04EC06081718120E031E0DB01A9018C
:1053B0001D9241505040E1F7408151816091FD0CB8
:1053C0000E94E49B882309F442C68AE40E947D3748
:1053D0003EC69289923020F48EE40E947D3737C613
:1053E0006081718101E00E94B89A882309F42FC678
:1053F000813021F484E10E947D3729C640E0682F86
:105400008AE40E948D3623C69289923028F3608107
:10541000718101E00E94579B813041F008F417C66A
:10542000823041F48AE10E947D3711C689E10E94F1
:105430007D370DC640E0682F8AE40E948D3607C68E
:105440008FE10E947D3703C6233008F400C69D32E9
:1054500021F48091FB0C803521F08EE10E947D3794
:10546000F6C5233021F08091FC0C8F3F19F4809118
:105470002C0E8F5F1092970C9EE19093960CEBE8A8
:10548000FDE0DF011D929A95E9F79DE09093A90D4B
:1054900090912D0E981708F4DAC5811108C04FE1DC
:1054A00050E063E673E0CF010E94459ED0C5DD2445
:1054B000DA94D80E0D2D10E0B0E6DB9EF001112439
:1054C000E25DF14FE1A8F2A82AEFE21621E0F20630
:1054D00029F4EF5AFF4F90819F7701C091E090939C
:1054E0008B0D92EE90938C0D80938D0D40E150E0EA
:1054F00060EA70E08EE89DE00E94799EF7013896A0
:105500002591349164EC7CE08D2DF9011995811180
:105510009EC5E4ECFCE0AEE8BDE08191882311F08B
:105520008D93FBCF80E6809FF001819FF00D1124C9
:10553000E25DF14F82859385A485B585A0939E0D8C
:1055400090939F0D8093A00D81A992A98A5F9140AD
:1055500091F483AD94ADA5ADB6AD81509E4FAF4FE4
:10556000BF4FBC01CD01F9E096958795779567957A
:10557000FA95D1F718C086819781A085B1859C01E5
:10558000AD012150310941095109A0A5B0E00E94A7
:10559000DB9D61157105810541E0940720F06FEFF7
:1055A0007FEF8FEF90E08093A60D7093A70D60932F
:1055B000A80D4DC58091E60C823031F040E062E1EB
:1055C00085E10E948D3643C585E00E94B70C3FC53A
:1055D0008091FB0C873509F0E2C0263008F437C50E
:1055E000E090FD0CF12CFE2CEE248091FC0CE80EDA
:1055F000F11C57E7E516F10431F48091FF0C8F712F
:1056000080932A0E24C5C70186509C41029708F456
:105610001EC582E0E81688E1F80609F418C5C090B6
:10562000FE0C10922A092091390230913A026091C1
:10563000F00DEFEFFCE040E0C41619F15191C90103
:105640008527282F22952827022E26952695202566
:10565000022E269520252770082E892F269507943F
:105660002795902D82270694279590258227823AA8
:10567000A8E39A0719F4503609F468E04F5F9C01DB
:10568000DBCF30933A02209339026093F00D86ED20
:1056900095E0FC013296D490DD2039F1FC01459172
:1056A00054914217530711F00496F3CFD092F00DA6
:1056B000FC013396859194918823B9F09927880F3E
:1056C000991F880F991FFC01EE57F84F25913491CF
:1056D0003093F50D2093F40DFC01EC57F84F8591B4
:1056E00094919093F20D8093F10D80912309909104
:1056F0002409892B09F4A7C46C2DC701C6D9DD2064
:1057000009F43AC08091230990912409892B09F06A
:1057100033C005EA13E0F80184918D1129C0319658
:10572000859194919093290980932809F8013396E3
:10573000E491F0E03196F0932709E0932609109266
:1057400025090E94EA0BDC01909324098093230928
:10575000892B09F473C41A968C911A9780641A964F
:105760008C931A97F8013496E4911496EC9366C4DE
:105770000B5F1F4F8111CFCF8091F00D811167C456
:1057800082E593E00E94ED0A80913A020E94CD0AE0
:10579000809139020E94CD0A0E94FB0A58C48534C8
:1057A00071F4253008F453C48091FD0C90E0982FDB
:1057B00088272091FC0C820F911DADD948C48235F9
:1057C00009F04BCE253008F442C4253019F481E0AD
:1057D0008093FE0C1091FE0C143608F013E6E09056
:1057E000FD0CF12CFE2CEE248091FC0CE80EF11C3B
:1057F000F7FE89C080917A0D882309F484C08091D6
:105800002C0E00E6089FC0011124825D914FDC013F
:105810009B964D915D916D917C919E97FC01468B7D
:10582000578B608F718F21E04AE75DE06BE279E092
:105830000E941353811113C0F0E8FF1A80913309BD
:1058400090913409A0913509B0913609811520E86D
:105850009207A105B10570F5EFE3FE222BC0809100
:105860002C0E089FC0011124825D914FDC015696D9
:105870001D921D921D921C92599721E04AE75DE00E
:105880006BE279E00E9413538823B1F21092440E28
:105890001092450E1092460E1092470E21E04AE7F4
:1058A0005DE06BE279E08EE29EE00E94135381118D
:1058B0002AC0C2CFAC01BD015F7366277727452B95
:1058C000462B472B19F09F73E80EF91EA70160E0E5
:1058D00070E08BE299E00E943057811114C0C12E14
:1058E000D12C9E012F5F3F4FA6016BE87DE08BE23C
:1058F00099E00E946D54811106C089819A81C81671
:10590000D90609F452C0E0912C0E20E6E29FF00186
:105910001124E25DF14F81A992A98A5F914051F46F
:10592000EF5AFF4F80818F77833031F0843011F44C
:1059300024E003C021E001C022E08091F00C82232A
:1059400039F08091EC0C9091ED0C8E159F0519F0BB
:1059500082E893E00DC08091EE0C80938B0D8091D6
:10596000EF0C80938C0D1FC0E416F50641F00596F0
:10597000FC014591549141155105B1F714C0FC014A
:10598000349645915491622F70E046235723452B5E
:1059900071F3FC013296E491E0938B0DFC01339698
:1059A000E491E0938C0D1092F00C8BE89DE09093C5
:1059B000950C8093940C1092970C1093960CE12FF9
:1059C000F0E0E557F24F8DE0808341C30E945124FF
:1059D0006AE370E089EF9CE00E94809E892B21F4AD
:1059E00082E20E947D3733C320E0AE01425D5F4F0B
:1059F000BE016F5F7F4F8AEF9CE00E94F39681119A
:105A000026C36CE270E08EA59FA50E94809E009741
:105A100019F0DC011D92CD016EA57FA5FB0120814F
:105A20002223F1F2E98120E6E29FF0011124E25DF8
:105A3000F14F01A8F2A9E02D749625913491AC01A3
:105A4000CE010196F901199502C33093F10C0E9421
:105A500051248091F10C823008F47FCC8091FA0CB3
:105A60008F700E94090D8C01009709F476CCDC013F
:105A70001B96ED91FC911C97309709F44DC9159632
:105A80002C91222341F18091F10C823068F0A09199
:105A9000FB0CB0E0823051F09091FC0CB92B8330BC
:105AA00029F05091FD0C03C0A1E0B0E051E02517B2
:105AB00020F483E30E947D37CAC2109709F0119742
:105AC0005111515030E00E94CC9D252FAB01BC01FB
:105AD000C8011995BCC24091FB0C5091FC0C60911F
