:10000000BCC50000E7C50000F4C50000E3C5000062
:100010000C94618B0C94B195DDC50000DBC500002C
:10002000D9C50000D7C50000D5C50000D3C5000064
:10003000D1C50000CFC50000CDC50000CBC5000074
:10004000C9C500000C943D98C5C50000C3C500009B
:10005000C1C50000BFC50000BDC50000BBC5000094
:10006000B9C50000B7C500000C94DA09B3C500009B
:10007000B1C50000AFC50000ADC50000ABC50000B4
:10008000A9C50000A7C50000A5C50000A3C50000C4
:10009000A1C500009FC500009DC500009BC50000D4
:1000A00099C5000097C5000095C5000093C50000E4
:1000B00091C500008FC500008DC500008BC50000F4
:1000C00089C5000087C5000085C5000083C5000004
:1000D00081C500007FC500007DC500007BC5000014
:1000E00079C5000013261526EA27D82DD82D6828B3
:1000F000D82D1E29D82DD82DD82D2C292A2BD82DF6
:10010000692BD82DBA2B562CD82DCB2CD82DD82DE9
:10011000372D0D2E0F2E112E132E132E162E182EB8
:100120001D372C372037243728372C3741373B37BA
:100130002F3737372C372C3749374D374537453729
:100140003E372437835F6D5F6D5F895F6D5F6D5FE5
:100150006D5F6D5F6D5F6D5F6D5F915F865F6D5F02
:100160006D5F8D5F6D5F7E5F8B5F6D5F8F5F6D5FBE
:10017000805F70606E6070607860786078607560D5
:1001800078607860786078607860786078606860BF
:1001900078606C60666078606A60AA66AF66B66612
:1001A000B166B866BD66B866C266E566EA66EF66C1
:1001B000E06F85708570E46F85708570157085704F
:1001C00085701870857085703670857085701F70A9
:1001D000857085703870857085704C7085708570FD
:1001E0006470AF8BF78BD08B708C748C798C7D8C1A
:1001F000018E958BFE14971A330D0B1AE010DC104C
:10020000D810F5112B15591AB31E37118E15C418B5
:100210003D0E130E01010000041601010000000054
:100220006E12280350500416010100800C00341394
:100230001201464690A20603005605001C13120147
:10024000232390A20A0300AB0200D012235045548E
:10025000534349494155544F535741502E47454EFA
:10026000004155544F535741502E4C5354002C20AD
:100270004352432000436F646520657865632061C5
:100280007420004D2D572043524320726573756CC6
:10029000743A2000FFE20053595354454DA0A0A0EA
:1002A000A0A0A0A0A0A0A0000000000000000000EE
:1002B00000000DA0FE0DED03C6E534B101FEFF0008
:1002C00000FFA3EAFF4C01C6E537B102E9A638B149
:1002D0000400000000000A2A04FF660B4F04FF66BA
:1002E0000000000000030303C786009A0504FD6AAE
:1002F00000000404FD6A009C05056C6B009A05056E
:100300006C6B00030406FD6A017F0518BA6B0036AA
:100310000307DD8700000317406A00000508B67078
:1003200000A90109836A0057040AE36E0070040BF8
:10033000E36E01E2030C9F6D00DC030C9F6D00FF78
:10034000030D9F6D000F040E9F6D0000040F616F81
:1003500000000410616F01000311A86F0000041277
:10036000A86F00000313A86F00000513A86F00001A
:100370000314D87A00000515666300F40516A96316
:10038000000005194A79001B041A147A0000041BA6
:10039000BB7C00050200978900170400E088002458
:1003A000041C6389008B041D447100050200B774AE
:1003B000010A0200B77402000321B77400090200A9
:1003C000F37400700725F37400580724F374007069
:1003D0000724F37400A80724F37400D80623F374E9
:1003E000007E0723F37400AA0723F37400AC0723ED
:1003F000F37400A50722F37400B10722F374006FB1
:100400000521F37400700521F37400770521F3745E
:1004100000E90521F37400EA0521F37400EC0521DD
:10042000F37400EE0521F37400EF0521F37400FC72
:100430000521F37400FE0521F37400100621F37406
:10044000006E0621F37400A40621F37400B60621A1
:10045000F37400FC0520F37400FE0520F37400FF24
:100460000520F37400260620F37400680620F37458
:1004700000DA051FF37400F1051FF37400F4051F83
:10048000F3740000061FF37400730327366800B886
:1004900004273668000B02003668000D020036683B
:1004A000000F0200366800110200366800050200E5
:1004B0006B830000072EB9640000072FB9640100A8
:1004C0000730B96402000731B96403000732B96428
:1004D00003000733B96404000734B9640500073525
:1004E000B96406000736B96406000737B964060028
:1004F0000738B96406000739B9640605020094801C
:10050000000000000000009F9C0300B0DA04003BE4
:10051000970400387E0400301B05000E8B05003068
:100520009906008102180896C1180981DD07003E6E
:10053000391700015A090079B90A0169240B0179B8
:100540004D0C01BCB20C0172B20C01EDDA0D028D42
:100550003F0E0247C90E0340F10F047E7310045A88
:1005600075110420291104E918110504981105F5E5
:100570004811055613110585E81105CA4E1105F6F7
:10058000DB1105ABE41105E56D1105FF301105E741
:10059000461105532211056AC212060C5512065B5C
:1005A0008213075B2413072170130737D513073510
:1005B000F61307C14314007048150025291600A63C
:1005C000121900920C08007D321A00F46A1B00F226
:1005D000D21D006786210000E3250CA419240C1D00
:1005E00074240CE4F7240CEC1E230C9343230C47D7
:1005F0006C230CF1D9230C05A9220CF6E7220C2858
:1006000020210B292C210BB44E210B6856210B9075
:100610006A210BAA74210B5E7C210B287E210BE73B
:10062000A1210B50A3210BE4B0210B40B3210BDC23
:10063000C1210B28EB210BA8F5210B9AFC210BA55E
:1006400003210D1FBA210D68CA210DCA2F200BCE20
:10065000B4200B30E5200BAAF71F0A9D371F0A486C
:100660000C2700665F2700D67C2E10ECF12E1010B0
:100670002B2F10F4B0301044AF3111431F320FDD77
:10068000B2320F9F80330F4630340FE6B8340F3A42
:10069000C8351153043610597C36105AA436103D13
:1006A0001C36103A8D370E2145380E3EC3390E00E8
:1006B00000000000000000DF070508EC070D08EC53
:1006C0000731085D084308EC0731087708430891B3
:1006D00008B7080000270700004707E474EB74E43C
:1006E000744E7247724E72E4745209AB640000AFEC
:1006F000640000B2640000B6640000772FB72EFEDD
:100700002DA12E982E8F2E862E812E982F322E7F61
:100710002E772E372E9543E92D1F2E454520324149
:1007200000454550524F4D46532020202020202088
:10073000200080204F4B81005320534352415443AB
:1007400048454482080994959697989B0103999C83
:1007500002039A022050524F54454354204F4E9D5D
:10076000054944204D49534D415443489E9FA0A103
:10077000A253594E54415803A7BE0004464F554E4C
:1007800044B2070450524553454E54B34F56455258
:10079000464C4F5720494E2007B4000B4C4152475E
:1007A00045BC0220002006BD000406BF00204558BD
:1007B00049535453C0002054595045204D49534D7E
:1007C00041544348C10C424C4F434BC2C30A2054CE
:1007D0005241434B204F5220534543544F52C60C75
:1007E0004348414E4E454CC744495203C8054655FF
:1007F0004C4CCA4452495645040159CD0920080AB7
:10080000CE4255464645520B534D414C4CCF494D77
:10081000414745200020494E56414C4944E2554E3F
:100820004B4E4F574E204452495645434F4445E3A3
:10083000434C4F434B20554E535441424C45FF804F
:1008400046494C458152454144825752495445835B
:10085000204552524F5284204E4F542085444953D4
:100860004B20864F50454E875245434F5244885047
:100870004152544954494F4E208953454C454354A5
:1008800045448A494C4C4547414C8B20544F4F209E
:100890008C4E4F20FF2D6D323536302D61726475D0
:1008A000696E6F5F6D656761323536300053443273
:1008B0004945432056312E302E306174656E746484
:1008C00065616430009039D0403E41CD3B383C8377
:1008D0003C5736E436853D8A3D5542133A383A0D49
:1008E0003CE13D773F43363446696C6500464154F0
:1008F00033320001030507090E10121416181C1ECE
:1009000044454C53455150524755535252454C4320
:10091000424D4449523F3F3F4E41543431203731DC
:100920002038312001010000424C4F434B532046F8
:100930005245452E2020202020202020202020202D
:1009400020000000010100002020202253595354B0
:10095000454D2220202020202020202020205359D7
:1009600053202000010401010000122253443249A7
:100970004543202020202020202020202220494BD9
:1009800020324100933328902B3C000000020105E7
:100990000900000002010409000702010409000720
:1009A0000102040900070A01020409070102060402
:1009B00009080604030900623578B219781BD4F0DF
:1009C00029E5F0000000756E6B6E6F776E3A0D0AC8
:1009D0000031323853595354454D31005359535413
:1009E000454D3100756E6B6E6F776E3A0D0A0013D0
:1009F0000C140F1706180400130D140F14110055D2
:100A00006E68616E646C656420637573746F6D20CD
:100A10006472697665636F64652C204352432000DD
:100A2000206C6F616465722000556E6B6E6F776E1F
:100A3000206472697665636F64652C20435243209D
:100A4000004B52494C4C0080204010080204012306
:100A5000F914720248AB557207855E7A7411000072
:100A6000000000A61B14ACE55043FE50197F781E11
:100A70008E14CBE350A3CE649F44A09D27149334DF
:100A800014000000884A1602A103D28A15028403CA
:100A9000A2F43504C501198D3504C5019CEC35045B
:100AA000C5011905B403DA034C21A503C803543169
:100AB000A803E6037A3EC403F903284CA303C90341
:100AC000A6CBB203D8036CEAA403CA03E449180313
:100AD00042030000000000004E45585400425546B5
:100AE00020455252004E4950504F4E003031323363
:100AF00034353637383941424344454692D26FBD8A
:100B00008CD3BDE20AFFFD000000000000FFFD00E5
:100B1000F8FAFBFC00FFFEF4F9FBFCFDF1FFFBF92A
:100B2000FAFCFDFEF60802040110204080080204D1
:100B30000140108020D1EB2800000011121315F0A5
:100B40008F1790188F1C8FBA8EAB8E5736E4368570
:100B50003D8A3D148F798E568F95438843C98E0DFB
:100B60000A73643269656320312E302E30617465FA
:100B70006E74646561643020230011241FBECFEFC2
:100B8000D1E2DEBFCDBF00E00CBF14BE0FB6F894BB
:100B9000A895809160008861809360001092600049
:100BA0000FBE12E0A0E0B2E0E4E9F5E301E00BBF24
:100BB00002C007900D92A437B107D9F72FE0A4E740
:100BC000B2E001C01D92A53BB207E1F70E94279158
:100BD0000C94C89A15CA28E039E040E8880F660FDF
:100BE00008F4842787FB0EF483272A95B9F78F77BB
:100BF00008952F932FB72F933F938F930F92499977
:100C000000C00F908F913F912F912FBF2F9118957A
:100C1000000000002A95F1F708954B9BFECF089540
:100C20004B99FECF0895F894FC0188279927519895
:100C300052984B9B529A499BFCCF29E2E9DF09B0BD
:100C400002FA85F901FA84F92EE1E4DF09B002FA2B
:100C500087F901FA86F928E1DBDF09B002FA81F9A8
:100C600001FA83F92EE1D6DF09B002FA80F901FA20
:100C700082F92EE1CFDF39B12CE0CADF529A27E1A9
:100C8000C7DF80953083789408953AB1307F00FAB9
:100C900031F901FA32F9069406943AB90895F894B4
:100CA0005AE0442309F054604F77662321F06AB17B
:100CB000607F646003C06AB1607F6260529851983F
:100CC00000C000C000C000C0082E009489B18E7022
:100CD0008517E1F38870E1F021E19CDFD6DF21E1A7
:100CE00097DFD3DF24E195DFD0DF21E191DFCDDF96
:100CF0002DE090DF442361F427E08ADF6AB900C069
:100D000000C000C000C089B183FF02C082FDFBCFDC
:100D100080958870789408954A99FECF80952AB17D
:100D2000207F2AB94A9BFECF00C000C000C000C08F
:100D300044E03AB1307F87FB31F986FB32F9880F06
:100D4000880F24E465DF3AB900C000C000C000C0CD
:100D50004A9579F72EE35DDF2AB1207F22602AB918
:100D600008954A99FECF2AB1207F2AB9FC014A9BF7
:100D7000FECF2AE04EDF019044E000942BE148DFF3
:100D80003AB1307F07FA31F906FA32F9000C000C5B
:100D90002AE340DF3AB929E03CDF4A9589F727E1A9
:100DA00039DF6A9541F72AE134DF2AB1207F2260DA
:100DB0002AB908953AB1307F00FA31F901FA32F9CF
:100DC0003AB906940694089539B132FB80F931FBA3
:100DD00082F90895519A4B9B07C04A99FCCF5198CC
:100DE0004B9B02C04A9BFCCF0895F894FC01519A9A
:100DF00028E110DF54E00190009444E0DBDF26E1BD
:100E000009DF4A95D9F708DF5A95A9F73AB1307F3B
:100E10003AB978940895F894882727E1F9DE529832
:100E2000499BFECF28E2F6DECFDF880F2AE1F0DE15
:100E3000CBDF8295869527E1EBDEC6DF880F22E1C6
:100E4000E7DEC2DF529A7894809599270895F89446
:100E5000082E52984999FECF499BFECF2EE1D8DE4D
:100E6000A9DF2CE0D6DEA6DF2CE0D3DEA3DF2CE06A
:100E7000D0DEA0DF2FE0CCDE5198529A00C000C037
:100E800000C000C089B18095887078940895F89466
:100E9000082E52984999FECF499BFECF2EE1B8DE2D
:100EA00089DF21E1B5DE86DF21E1B2DE83DF21E1EA
:100EB000AFDE80DF2FE0ACDE5198529A00C000C058
:100EC00000C000C089B18095887078940895F89426
:100ED0009FEF88277FDF4B9B14C02DE19ADE74DFE4
:100EE000880F22E195DE70DF829586952DE192DEF6
:100EF0006BDF880F22E18CDE67DF22E38BDE992730
:100F0000809578940895F894529A4B9B19C049990A
:100F1000FCCF52984B9B14C0499BFCCF082E0094E9
:100F200084E02DE075DE2BE074DE44DF8A95D9F78E
:100F300024E16FDE5198529800C000C000C000C08C
:100F40007894089507FA31F905FA32F93AB9089513
:100F50005298519800C000C000C000C03AB1307F24
:100F60004B9B17C04A9BFCCF082E24E152DEEADFE0
:100F7000000C22E14DDEE6DF8295082E22E149DEFB
:100F8000E1DF000C22E144DEDDDF22E343DE8827DF
:100F9000089581E008958827499BFECF4999FECFA7
:100FA00024E237DE39B131FB83F932FB84F920E2E8
:100FB0002FDE39B131FB85F932FB86F90895EBDF7D
:100FC0002DE127DE01DF880F22E222DEFDDE2AE1AD
:100FD00021DE809599270895DEDF21E11ADEF4DE17
:100FE000880F25E116DEF0DE27E112DE80959927D5
:100FF00008955198529800C000C000C000C049999F
:10100000FECF3AB1307F032E0895F3DF83FB31F931
:1010100081FB32F928E2FEDD07C0EBDF83FB31F90B
:1010200081FB32F920E1F4DD3AB9302D82FB31F950
:1010300080FB32F925E1ECDD3AB98095302D84FB57
:1010400031F985FB32F928E1E5DD3AB9302D86FB2F
:1010500031F987FB32F92BE1DDDD3AB927E3D8CD51
:1010600008958095C6DF082E29E0D4DDA3DE29E0AF
:10107000CFDDA0DE21E1CCDD9DDE2FE0CBDD9ADEF1
:101080002CE1C6CD0895B5DF07D082952AE0C1DDF9
:1010900003D027E3BECD0895302D83FB31F981FBCA
:1010A00032F92FE0B6DD3AB9302D82FB31F980FB01
:1010B00032F920E2AEDD3AB908958827499BFECF88
:1010C0004999FECF25E2A4DD7FDE880F22E1A0DD75
:1010D0007BDE829586952FE19BDD76DE880F2AE107
:1010E00097DD72DE22E396DD9927809508958827A3
:1010F000499BFECF4999FECF28E28BDD65DE880F44
:1011000025E187DD61DE8295869525E283DD5CDE63
:10111000880F22E27DDD58DE22E37CDD9927809571
:1011200008958827499BFECF4999FECF24E271DDBF
:1011300039B131FB80F932FB81F928E169DD39B140
:1011400031FB82F932FB83F928E162DD39B131FBF1
:1011500084F932FB85F928E15BDD39B131FB86F991
:1011600032FB87F92DE156DD80959927089580950A
:1011700040DF082E29E04EDD1DDE2CE04ADD1ADEC0
:1011800024E147DD17DE24E144DD14DE22E242CD16
:101190000895F8948095082E51984A9BFECF26E03A
:1011A00037DD08DE2CE035DD05DE2CE032DD02DE49
:1011B0002CE02FDDFFDD20E12BDD5298519A789451
:1011C0000895F894882751984A99FECF4A9BFECFFC
:1011D0002BE11FDDF9DD880F22E11ADDF5DD8295B7
:1011E000869522E216DDF0DD880F22E111DDECDDCF
:1011F00027E010DD519A7894809599270895F89406
:10120000082E51985298499BFECF21E102DDD2DD94
:101210002CE0FFDCCFDD2CE0FCDCCCDD2CE0F9DCCD
:10122000C9DD27E0F6DC5198529A2DE0F3DC789482
:101230000895F8943AB1307F4A9BFECF529A24E247
:10124000E8DC5298082E23E0E3DC7CDE000C2DE085
:10125000E0DC78DE8295082E2DE0DCDC73DE000C0D
:101260002DE0D7DC6FDE20E1D4DC52982AE0D2DC1E
:1012700089B1847078940895F894082ED1DC52983E
:10128000CCDC27E4C7DC96DD29E3C2DC93DD29E36F
:10129000BFDC90DD29E3BCDC8DDD2DE3BADC529AA6
:1012A000789408958095082EBBDCB7DC21E1B0DC92
:1012B00081DD2CE0AEDC7EDD2CE0ABDC7BDD2CE0E8
:1012C000A8DC78DD2FE0A4DC519821E1A1DC4B9B68
:1012D00002C0519AE8CF8827089581EE94E0909358
:1012E00089008093880010928500109284001092EB
:1012F00080008BE080938100EFE6F0E080818260E7
:1013000080830895811103C01DBC80E503C081E086
:101310008DBD82E58CBD089595B1907F9B6095B998
:1013200094B1907F976094B9811103C01DBC80E592
:1013300003C081E08DBD82E58CBD8DB58EB508956D
:101340008EBD0DB407FEFDCF8EB508958FEF8EBD17
:101350000DB407FEFDCF8EB50895680F791F86176F
:10136000970789F0411103C0FC01208101C02FEFD4
:101370002EBD0DB407FEFDCF2EB5442311F0FC01A8
:1013800020830196ECCF089585B7806885BF85BF1F
:10139000089583B7817F83BF83B7816083BF08953A
:1013A00088950895F894E0E0F0E01995F894089590
:1013B000789408951F920F920FB60F9211240BB6D6
:1013C0000F922F933F938F939F93EF93FF932091CF
:1013D00076023091770280917402909175022817FD
:1013E000390721F1E0917602F0917702E858FD4F3C
:1013F00080818093C6008091760290917702019659
:101400008F779927909377028093760220917602C6
:1014100030917702809174029091750228173907F4
:1014200029F48091C1008F7D8093C100FF91EF91DD
:101430009F918F913F912F910F900BBE0F900FBEF8
:101440000F901F90189520917402309175022F5FB4
:101450003F4F2F773327E1ECF0E090819F7D908321
:10146000A0917402B0917502A858BD4F8C9330932F
:101470007502209374028081806280830895CF93E7
:10148000C82F8A3011F48DE0DEDF8C2FDCDF80E0A6
:1014900090E0CF910895CF93C82F82958F708A30B6
:1014A00010F4805D01C0895ACEDF8C2F8F708A3096
:1014B00010F4805D01C0895AC6DFCF910895209154
:1014C000760230917702809174029091750228170C
:1014D0003907A9F70895CF93DF93FC018491EF01B9
:1014E0002196882319F0AFDFFE01F8CFDF91CF916D
:1014F00008958DE0A8DF8AE0A6CF0895A0E0B0E0CF
:10150000E4E8FAE00C94D0997B015A01EC01C60F93
:10151000D71F00E010E00A151B0508F04EC08F2D04
:10152000BADF8E2DB8DF8CE78EDF80E28CDF4E01D4
:1015300080E1880E911C6E01C8018C1B9D0B8C0DE7
:101540009D1D8A159B0520F4F6018081A4DF04C04F
:1015500080E279DF80E277DF80E275DFFFEFCF1A8C
:10156000DF0A8C149D0441F78CE76DDFC12CD12C70
:10157000C8018C0D9D1D8A159B0568F44E018FEFE7
:10158000881A980A888190EE980F9F3508F08EE2AD
:101590005ADFE40102C080E256DFEFEFCE1ADE0A26
:1015A000F0E1CF16D10421F78CE74DDFA2DF80E117
:1015B000E80EF11C005F1F4FAECFCDB7DEB7ECE0F9
:1015C0000C94EC991092C50087E08093C40088E1E8
:1015D0008093C10086E08093C20080E092E0909307
:1015E000B20F8093B10F1092770210927602109290
:1015F000750210927402089580E00895CF93DF93EE
:1016000090E3899FF0011124DF01A358B44F8C911E
:1016100080FD15C0ED58F44F9F012E5F3F4F8EE2C5
:10162000E90119928A95E9F78C9181608C9384E69F
:1016300084838CEF9AE096878587908B8787DF91EC
:10164000CF910895E3E7FBE080E591E0DF019C01A5
:101650001D9221503040E1F788EF92E09183808322
:1016600088EF93E091AB80AB88EF94E09093D40B3C
:101670008093D30B88EF95E09093040C8093030C38
:1016800088EF96E09093340C8093330C88EF97E0CA
:101690009093640C8093630C85E89DE09093940C88
:1016A0008093930C8FE08093970CEDE9FCE08081B0
:1016B0008D60806280838EE295E39093A10C80938D
:1016C000A00C8CEF9AE09093A30C8093A20C089549
:1016D000CF93DF9380E090E020E3289FE001299FF3
:1016E000D00D1124FE01E358F44F208120FD05C0E8
:1016F00085DFCE018D58944F09C001968630910543
:1017000059F786E40E942A3580E090E0DF91CF917E
:101710000895DEDF009741F0FC0114822091E40C73
:101720002F5F2093E40CA5980895A0E0B0E0EBE9CA
:10173000FBE00C94D499182F20E030E000E080E02A
:1017400090E3929FF001939FF00D1124E358F44F22
:10175000908190FD07C0811101C0022F8F5F81131E
:1017600002C008C080E02F5F3F4F2630310541F7AF
:10177000811750F080E3089FE0011124CD58D44F29
:10178000E12EE00EF02E06C086E40E942A3580E0AD
:1017900090E033C0C02ED12CFE14C9F08F2D2EDF67
:1017A0008091E40C8F5F8093E40CFE011C82E09634
:1017B000D68BC58B20E32C9DC0012D9D900D11244F
:1017C0008D58944F948B838B128BF394E3CFA59811
:1017D000C601810F911D019720E3289FF001299FE9
:1017E000F00D1124ED58F44F168A158A2C9DC00176
:1017F0002D9D900D11248D58944FCDB7DEB7E8E0A4
:101800000C94F099FC01892BC1F024812F30A9F0B0
:10181000928590FF12C09E7F928794FF05C08091B1
:10182000E40C80518093E40C243628F48091E40C7D
:1018300081508093E40C0C94498E0895CF93DF93EC
:10184000EC01EF85F8891995CE01DCDFDF91CF91AE
:101850000895EF92FF920F931F93CF93DF93D82FAA
:1018600003E71BE0E12CF12CC0E080E38E9DF0014A
:101870008F9DF00D1124E358F44F808180FF2BC021
:10188000D1FD05C0D80114968C91843620F5D2FD87
:101890000BC080E38E9DF0018F9DF00D1124E35865
:1018A000F44F808186FD17C0D0FF13C0C1110EC058
:1018B000D8011F96ED91FC915097C801199521E030
:1018C00030E0811105C020E030E002C021E030E0CE
:1018D000C22FC80197DFBFEFEB1AFB0A005D1F4F55
:1018E000E6E0EE16F10409F0C0CF8C2FCDB7DEB7DD
:1018F000E6E00C94F299E3E7FBE040E050E090E38F
:10190000949F9001959F300D1124D901A358B44F95
:101910009C9190FF07C09481981304C0C9018D5811
:10192000944F08954F5F5F4FF0964730510539F758
:1019300080E090E00895FC01928594FD0CC09061D8
:1019400092878091E40C805F8093E40C8091020187
:101950008F7E809302010895FC01928594FF0FC051
:101960009F7E92878091E40C80518093E40C829555
:101970008F7029F4809102018061809302010895A3
:101980005FEF560F20E6829FC0011124FC01E7584B
:10199000F14F20812F77842F90E0223061F02430A6
:1019A000E9F1213009F440C0533228F05CED560FC4
:1019B0002BEA32E002C020E030E0513130F445E162
:1019C000549F800D911D112433C0652F70E0583154
:1019D00058F461517109E3E1E69FA001E79F500DC2
:1019E00011244B595E4F17C05E3158F4685171098C
:1019F000E2E1E69FA001E79F500D112446515E4FA2
:101A00000AC06E517109E1E1E69FA001E79F500D08
:101A100011244A5A5D4F840F951F0AC028E2529F35
:101A2000800D911D11240895252F30E0322F22279B
:101A3000820F931F0895E091FB08F091FC0801903C
:101A4000F081E02D828380958383DB018C918483F8
:101A500011968C91858380EC868308958FE10E9496
:101A60002A3581E008958FE10C942A350895EF928C
:101A7000FF920F931F93CF93DF93F82EE90180E03D
:101A800091E0F9019C01119221503040E1F78FEF74
:101A900089838F2D75DFAC0160E070E0762F652FB4
:101AA000542F4427E12C00E011E09E018F2D0E946D
:101AB000D543CDB7DEB7E6E00C94F2994F925F9232
:101AC0006F927F92AF92BF92CF92DF92EF92FF928E
:101AD0000F931F93CF93DF93F82E6B0140E051E0FB
:101AE00061E070E0F601808191810E945E9AAF2CE6
:101AF000B12C80E6F89EF0011124EE57F14F4080A2
:101B0000518062807380BB27A72D962D852DEC0117
:101B10001C161D06C4F48E01C130E1E0DE0714F08E
:101B200000E011E0F60120813181E12CB301A20136
:101B30008F2D0E94D543811113C0FFEF5F1A6F0AEA
:101B40007F0ADA95E5CF80E68A9DF0018B9DF00D46
:101B50001124E758F14F80818068808380E001C0C4
:101B600081E0DF91CF911F910F91FF90EF90DF9077
:101B7000CF90BF90AF907F906F905F904F900895FF
:101B8000EF920F931F93CF93C82F8B01E42EFB018D
:101B900041816081F5DEF8014281F0E24F9FA001B2
:101BA0001124052E000C660B770BA0E0B0E0BA2FD5
:101BB000A92F982F8827480F591F6A1F7B1F00E203
:101BC00010E023EC3CE08C2F0E94D543CF911F9175
:101BD0000F91EF9008950F931F93CF93C82F8B0110
:101BE000FB0141816081CCDEF8014281F0E24F9F30
:101BF000A0011124052E000C660B770BA0E0B0E0CD
:101C0000BA2FA92F982F8827480F591F6A1F7B1FAB
:101C100000E210E023EC3CE08C2F0E949943CF912E
:101C20001F910F910895EF92FF920F931F93CF93FF
:101C3000DF937C018A01EB016C96BE01FC0180817F
:101C4000CADF811115C040E150E060EA70E088EC25
:101C50009CE00E945E9AF801A8ECBCE08191882388
:101C600011F08D93FBCF41E0BE01F701808188DF49
:101C7000CDB7DEB7E6E00C94F299A2E0B0E0E3E481
:101C8000FEE00C94D4997C01FC01C08080E6C89EE3
:101C9000F0011124E758F14FD080E1E0DE1621F089
:101CA000C7010E9488432FC0FB018081811104C0BD
:101CB000F701D582D68239C08F3551F5FB0181817C
:101CC000811126C0F701468165818C2D59DEAC015A
:101CD00060E070E0762F652F542F44274E5D5F4FF4
:101CE0006F4F7F4F02E010E09E012F5F3F4F8C2D22
:101CF0000E94994381111AC08981F701811105C0A1
:101D000080810E942142D82E11C085838A810CC017
:101D1000645E7F4F8C2D5FDF811108C08091C60CFF
:101D2000F70185838091C70C8683D12C8D2D229657
:101D3000E8E00C94F099EF92FF920F931F93CF93EA
:101D4000DF93EC01E881F9811082E881F9818A81D1
:101D500081836E894F89888D998D0196998F888F9F
:101D6000611102C011E043C0FD888F2D09DE28817A
:101D70003981AC0160E070E0762F652F542F442745
:101D8000EE24E39400E011E08F2D0E94D5438111F1
:101D9000E9CF8E010F5E1F4FB8018D891CDF8111C5
:101DA000E1CF8091C50C80688093C50C888D8093AD
:101DB000E10C888D998D9093E20C82E58093DC0C88
:101DC00088E08093DD0C8FE18093DE0C1092DF0CB5
:101DD0001092E00C41E0B8018D89D2DE182F8111FC
:101DE000C1CF8CEF9AE0988B8F87CE010BDD812FCE
:101DF000CDB7DEB7E6E00C94F299A0E0B0E0E3E006
:101E0000FFE00C94D499C82E790180E6C89EF001B9
:101E10001124E758F14F80818F77833029F0843087
:101E2000E9F0813089F42AC0643270F041110AC0AF
:101E300070E064527109C62FCC0FC60FD0E035E3B5
:101E4000D32E27C0C9EB05C0660F660FC1E0411154
:101E5000C0E0C60FD0E022E1D22E1BC0693208F0EC
:101E60004FC0D1E0C1E04111C0E0C65F862F880FAE
:101E7000680F660FC60F98E2D92E0BC0D62FD695E5
:101E8000D695D695DE5FC62FC295CC0FC07EDD24D9
:101E9000D394A091FB08B091FC0851968C91519776
:101EA000C8120AC052969C915297D91205C05396F7
:101EB0009C915397D917B9F0E091F908F091FA087D
:101EC000309709F1F093FC08E093FB08B093FA080F
:101ED000A093F9088189C81238C08289D81235C008
:101EE0008389D81332C0E091FB08F091FC0880810F
:101EF00091818C0F911DF7019183808380E057C001
:101F00006852D2E0AFCF8F3F01F1E2DBFC0190934A
:101F1000FA088093F908892B09F445C085E6848383
:101F20008FEF818B87E791E1908B87878285806433
:101F300082878091FB089091FC08F093FC08E09365
:101F4000FB089093FA088093F9088091FB08909120
:101F5000FC08DC011F96ED91FC91509719958111B9
:101F600020C04D2F6D2D8C2D0BDDE091FB08F091E5
:101F7000FC0820813181AC0160E070E0762F652F94
:101F8000542F442700E011E08C2D0E9499438111C9
:101F90000EC0E091FB08F091FC08C18AD28AD38B75
:101FA000A2CF81E004C080E00E942A35CECFCDB719
:101FB000DEB7E8E00C94F099A2E0B0E0E2EEFFE0DA
:101FC0000C94D899182F042F1A8219829E012F5F22
:101FD0003F4F40E012DF81112FC080E6189FF001D3
:101FE0001124E758F14F3081202F2695269526950C
:101FF00089819A810770FC01E20FF11D313091F463
:102000002081822F90E020E830E0002E02C035953C
:1020100027950A94E2F72823392381E0232B69F4DA
:1020200080E00BC0808190E0002E02C095958795DE
:102030000A94E2F7817001C08FEF2296E4E00C94DD
:10204000F499A2E0B0E0E7E2F0E10C94D799082F10
:10205000F62E142FB1DF87FF02C081E056C0811138
:1020600002C080E052C09E012F5F3F4F40E06F2DC5
:10207000802FC3DE8111F1CFE091FB08F091FC08C5
:1020800092859260928790E6099FF0011124E758AB
:10209000F14F2081912F969596959695E981FA8139
:1020A0001770E90FF11D213069F420E830E0012EAE
:1020B00002C0359527950A94E2F72095908129234F
:1020C000208323C081E090E0012E01C0880F0A9494
:1020D000EAF780959081892380839E012F5F3F4F8F
:1020E00041E06F2D802F89DE8111B7CFE981FA8120
:1020F0009081992309F4B5CF91509083E091FB082A
:10210000F091FC089285926092872296E5E00C940B
:10211000F399A0E0B0E0EFE8F0E10C94D399FC0172
:102120007B01B42EC22FD081CD2ED12C80E6D89F3A
:10213000D0011124A758B14F8C91813011F4468100
:1021400001C040E065818D2F1BDCAC010C2F10E03D
:1021500080E68C9DF0018D9DF00D1124EE5AFF4F0D
:10216000EB0DF11DE85DF14F808160E070E0762FAE
:10217000652F542F4427480F511D611D711D970174
:102180008D2F0E94994381110DC02FEF2C0FF70165
:10219000E20FF11D9081903A11F490E2908321506A
:1021A000B0F701C081E0CDB7DEB7E9E00C94EF995C
:1021B00025E045E0AECF089520E144E0AACF0895A0
:1021C000CF92DF92FF920F931F93CF93DF93CDB700
:1021D000DEB727970FB6F894DEBF0FBECDBF6B01F9
:1021E00090E6899FF0011124DF01A758B14FFC90C0
:1021F000A1E0FA120CC000E110E09B0144E051E0C4
:1022000060E070E00E949943882399F021C089839F
:10221000ED5AF14F86E0DE01129601900D928A95FB
:10222000E1F7CE010196C8DF882319F0FF24F3946B
:102230000FC0F6013F96D60150961C92EC15FD0595
:1022400031F08081803219F431971182F7CFF12C6F
:102250008F2D27960FB6F894DEBF0FBECDBFDF914E
:10226000CF911F910F91FF90DF90CF900895A2E042
:10227000B0E0EDE3F1E10C94D499FC01DB018C9129
:10228000808315966C911597618316964C911697DD
:102290004283138284818E7F8483CC9080E6C89EA3
:1022A000D0011124A758B14FDC9081E0D81219C099
:1022B0007F018C2D65DBAC0160E070E0762F652F2F
:1022C000542F442702E010E09E012F5F3F4F8C2DDA
:1022D0000E949943811106C08981F70181838A8117
:1022E0008283D12C8D2D2296E8E00C94F099EF9208
:1022F000FF920F931F93CF93DF93EC019A85892F61
:10230000827091FF1EC0F9888091270EF816C0F4E4
:102310004B896A898F2D34DB28813981AC0160E0DB
:1023200070E0762F652F542F4427EE24E39400E0CD
:1023300011E08F2D0E94D5439A859D7F9A8701C019
:1023400080E0CDB7DEB7E6E00C94F299A2E0B0E011
:10235000ECEAF1E10C94DA991A821982611103C056
:1023600080E090E03EC090E6899F90011124F90141
:10237000E658F14F9381961798F3F901E758F14F1A
:1023800090819F779E012F5F3F4F41E0913011F583
:1023900034DD8111E5CFE981FA81BF01605E7F4FB5
:1023A00040E050E03191232F269525753575230F98
:1023B000922F9373269526952373920F892F8F70F2
:1023C00092959F70980F490F511D6E177F0751F717
:1023D000CA0107C012DD8111C3CFE981FA81808172
:1023E00090E02296E2E00C94F699FF920F931F93EF
:1023F000CF93DF93F82EC1E000E010E020E6F29EDC
:10240000C0011124FC01E658F14F23812C1738F14B
:10241000FC01E758F14F80818F77813059F084308B
:1024200019F4C832A9F419C0C231B9F0C533A9F002
:10243000813071F4C13061F4D0E44D2F61E08F2D13
:10244000BBDD181614F40F5F1F4FDF5FB1F705C037
:102450006C2F8F2D7BDF080F191FCF5F79F6C80116
:10246000CDB7DEB7E5E00C94F399A0E0B0E0EBE384
:10247000F2E10C94D2997B01EA01690120E6829F86
:10248000C0011124FC01E658F14F5F0184818B01EA
:10249000080F111D49E150E060EA70E0C8010E9498
:1024A0005E9AFE01D8019E012F5E3F4F81918823E5
:1024B00029F0E217F30711F08D93F8CFF50185812C
:1024C000D701A80FB11D85E0F60101900D928A9504
:1024D000E1F7CDB7DEB7EAE00C94EE99A0E0B0E00A
:1024E000E4E7F2E10C94D499F82EEB016A0189013A
:1024F000E12C4E2D61E08F2DA4DDE39423E2E21266
:10250000F8CFB80188E497DAE091FB08F091FC0875
:10251000A081B18130E6F39EF0011124E658F14F1D
:10252000828118968C93E881F98180E091E0DF0147
:102530009C011D9221503040E1F7EE24E394E082AB
:1025400082E2818388E4828391E3D80113969C938D
:10255000139714968C93688179819801A6018F2D29
:1025600084DFE881F981E0A2E881F981E1A2288194
:102570003981E12C00E011E040E051E060E070E0E2
:102580008F2D0E94D543811106C02881398142E2F6
:1025900061E08F2D6CDACDB7DEB7E8E00C94F099EE
:1025A000CF92DF92EF92FF920F931F93CF93C82F9A
:1025B0008B016A01790140E062E143DD41E062E1C3
:1025C0008C2F3FDDE091FB08F091FC080190F08139
:1025D000E02D82E1808381E0818381E4828392E344
:1025E000F70193838483E091FB08F091FC086081FC
:1025F00071819701A6018C2F38DFA091FB08B09163
:10260000FC08ED91FC911197E755FF4F80EA80831C
:10261000ED91FC91E655FF4F8083F80120813181D7
:1026200041E062E18C2F23DACF911F910F91FF904F
:10263000EF90DF90CF900895CF93DF93D82FB0DF46
:10264000E091FB08F091FC080190F081E02D80E81A
:102650008383C0E04C2F65E38D2FF3DCCF5FC33164
:10266000C9F7DF91CF910895A0E0B0E0EAE3F3E18C
:102670000C94D499C82F6B017A018901D0E04D2FB9
:1026800068E28C2FDEDCDF5FD430C9F7E091FB0815
:10269000F091FC080190F081E02DD8E2D083E09128
:1026A000FB08F091FC080190F081E02D82E081832D
:1026B000B80184E4C0D969E28C2F48DEE091FB08C0
:1026C000F091FC080190F081E02D1082E091FB0870
:1026D000F091FC080190F081E02D8FEF8183B8012B
:1026E00084E4A9D9E091FB08F091FC08828582601E
:1026F0008287D601ED91FC911197D08383E081838D
:1027000084E4828393E3F801938384836D917C91C5
:102710009801A7018C2FA9DED6012D913C91E12CC7
:1027200000E011E040E058E166E070E08C2F0E948C
:10273000D543811107C0F6012081318143E068E271
:102740008C2F95D9CDB7DEB7E8E00C94F09920E650
:10275000829FC0011124FC01E758F14F80818F77DF
:10276000823051F0843089F0813019F480E091E0BA
:102770000895643208F06352623150F0693158F0C4
:102780006F3160F081E190E0089588E290E0089573
:1027900085E190E0089583E190E0089582E190E082
:1027A00008958F929F92AF92BF92EF920F931F93D3
:1027B000CF93DF9380911002882369F1C0910E02BC
:1027C000CF3F31F1D0910F0240E06D2F8C2FD8D840
:1027D00020E6C29FF0011124EE57F14F80809180D6
:1027E000A280B380880E991EA11CB11C6D2F8C2F66
:1027F000AEDFEE24E3948C0121E132E0B501A401C7
:102800008C2F0E94D543811105C01092100203C085
:1028100080E001C081E0DF91CF911F910F91EF9097
:10282000BF90AF909F908F900895BF92CF92DF920C
:102830000F931F93CF93DF93082F10E090E6899FAB
:10284000F0011124E758F14F908197FF4DC090910E
:102850000E02891305C090910F02961709F442C029
:10286000B62EC82F9EDFD82F81113EC048E250E01F
:1028700061E070E081E192E00E945E9A8FEF8093C8
:102880000E0240E06B2D8C2F7BD86C0120E6209F40
:10289000C001219F900D11248C01085D114FF8019A
:1028A000EF5AFF4F80818F7782508330E8F46B2D91
:1028B0008C2F4DDFF801E65AFF4F40815181628134
:1028C00073814C0D5D1D611D711D8C0121E132E094
:1028D0008C2F0E949943823038F4C0930E02B0923C
:1028E0000F0203C0D0E001C0D1E08D2FDF91CF9166
:1028F0001F910F91DF90CF90BF900895A0E0B0E0BE
:10290000E4E8F4E10C94D299D82FC62FF42E690193
:10291000662381F080E6D89FF0011124E658F14F3C
:102920008281861738F08D2F12DFAF2CB12CA816BC
:10293000B90620F04F2D6C2F8E2D10C06C2F8D2FCF
:1029400074DF811115C0F501E25FFD4F83819EEFB9
:10295000980F9A3038F44F2D6C2F8E5E0E944A34B7
:1029600082E015C08F3021F48AE40E942A35F8CF26
:102970004F2D6C2F8D2F04D8AC0160E070E0762FC6
:10298000652F542F442796018D2F0E949943CDB770
:10299000DEB7EAE00C94EE99EF920F931F93CF937A
:1029A000DF93EC01E881F98180818E8B81818F8BAF
:1029B00083E4E82E00E011E09F01418160818D8970
:1029C0009DDF882329F0CE010E94020C81E010C017
:1029D00092E09B83E881F98120819A85211104C0CE
:1029E00021812A83906203C02FEF2A839F7D9A87DB
:1029F000DF91CF911F910F91EF9008950F931F9347
:102A0000CF93DF938C01EA01645E7F4FFC018081EC
:102A1000E2D881111BC0E881F9818091C60C8083C6
:102A2000E881F9818091C70C8183F80180818D8BC9
:102A30008A852CEC34E13E872D872EE23DE03C87F1
:102A40002B87846080648A87CE01A6DFDF91CF91D7
:102A50001F910F910895EF920F931F93FC01862F02
:102A6000642F422F2081318192E4E92E00E011E0B1
:102A700045DF1F910F91EF900895EF920F931F93F1
:102A8000CF93DF93EC018B818830C9F483E4E82E87
:102A900002E010E023EC3CE04A81698188812EDF6E
:102AA000811127C08091C30C882389F19091C40CB7
:102AB000992369F189838091C40C8A831B821981CF
:102AC000112391F0088180E6089FF0011124E65857
:102AD000F14F8281811740F0612F802F38DE2A81EB
:102AE00030E02817390738F04A81612F83E40E94CB
:102AF0004A3481E00DC0BE016F5F7F4F802F6BD8DD
:102B00008111F7CF8B818F5F8B8380E001C08FEFC6
:102B1000DF91CF911F910F91EF9008950F931F9325
:102B2000CF93DF938C01EB01C801A7DF81117AC03D
:102B30008091C50C811108C08091C60C8823A1F337
:102B4000F801848180FFF0CF8DE2FE0111928A9519
:102B5000E9F784E08B8F8091C50C898B811102C0CD
:102B600080E202C080588F7D898B8989982F9F7061
:102B7000973018F0807F8760898BF801818192817E
:102B8000A381B4818C8F9D8FAE8FBF8F8E8D81502E
:102B90008E8F8091E20C90E0982F88272091E10C95
:102BA000820F911D9B8B8A8B8FEF8C8B80E1E8ECE1
:102BB000FCE0DE0101900D928A95E1F78FE0FE01C5
:102BC000E80FF11D9081903A09F410828150B8F716
:102BD0008091E00C6CE30E943899998F8091DF0C12
:102BE00068E10E943899988F8091DE0C90E00197FF
:102BF0006FE170E00E9458998F5F8F8B8091DD0CA0
:102C000090E001976CE070E00E9458998F5F8E8B86
:102C10008091DC0C64E60E943899903508F49C5948
:102C20009D8B80E0DF91CF911F910F910895A0E0DF
:102C3000B0E0EDE1F6E10C94D199B82EEB017A0108
:102C4000C82ED12C80E6B89E80011124F801E758E7
:102C5000F14F80816881813059F5162F612F8B2DBE
:102C600075DB2881892B91F41F5F80E68C9DF00134
:102C70008D9DF00D1124E658F14F8381181711F046
:102C8000111101C011E01213E9CF23C0121303C0C8
:102C9000F701008101C000E0402F612F8B2D8CD9FE
:102CA000811102C00F5FF8CF1883F701008387C03E
:102CB0000658114FF8018081681310C08B2D46DB38
:102CC000892B49F48091E90D811103C088E40E94A9
:102CD0002A3581E075C0F801978002C0F80196801E
:102CE000A12CF2E0FA15A8F168818B2D2FDB892B3E
:102CF000A1F58881F8019081891710F4815012C0E4
:102D000021E0280F288390E69C9DF0019D9DF00D09
:102D10001124E758F14F90819F77933021F42533A8
:102D200011F48E5F88838881811107C0F80180814A
:102D30008F5F8883F7011082A3949881F8018381C3
:102D4000891778F6808181508883F7011082A394D7
:102D5000C8CF83E0A81609F4B5CFF7018081192DFB
:102D6000180F108368818B2DF2DC212F30E028179B
:102D7000390740F0181B19F4F701108203C01150F5
:102D8000F701108303E6F701408168818B2D14D988
:102D9000181694F0015098F0F701208111E0120FFD
:102DA000108368818B2DD3DC212F30E02817390761
:102DB00050F3F7011082E7CF002309F483CF80E0BE
:102DC000CDB7DEB7EBE00C94ED99A0E0B0E0EBEE10
:102DD000F6E10C94D2996C01EB01BC01CE0147DA0B
:102DE000CE014BDE181614F481E0D8C0811108C062
:102DF0008091C50C8111F4CF9B8191509B83CEC0F3
:102E000019810A815E01BFEFAB1ABB0AAE014E5FAA
:102E10005F4FB501F60180810ADF8111E5CF89811D
:102E20008093C30C8A818093C40CD601FC90402F00
:102E3000612F8F2D0E94C00CAC0160E070E0762FF6
:102E4000652F542F4427E12C02E010E023EC3CE0F6
:102E50008F2D0E94D5438111C7CF4A816981F60128
:102E60008081EFD88111C0CFD601FC90B0E6FB9EE7
:102E7000F0011124E758F14F8081813061F080E248
:102E8000E3ECFCE0DF011D928A95E9F78FEF809378
:102E9000C40C10E071C0F601468165818F2D0E943F
:102EA000C00CAC0160E070E0762F652F542F4427F2
:102EB0004C5D5F4F6F4F7F4F03E010E023EC3CE031
:102EC0008F2D0E94994381118FCF6091C30C66238F
:102ED000B1F2D601FC904091C40C8F2D0E94C00C21
:102EE0004091C50C50E060E070E0445E5F4F6F4F72
:102EF0007F4FA0E0B0E0BA2FA92F982F8827480F66
:102F0000591F6A1F7B1F02E010E026EC3CE08F2D6A
:102F10000E949943811168CF8091C60C9091C70C93
:102F200001969093C70C8093C60CF601F0804091F7
:102F3000C40C6091C30C8F2D0E94C00C4091C50C35
:102F400050E060E070E0445E5F4F6F4F7F4FA0E065
:102F5000B0E0BA2FA92F982F8827480F591F6A1F52
:102F60007B1FEE24E39426EC3CE08F2D0E94D5439A
:102F7000882309F484CF38CF1B8340E0B501D60104
:102F80008C910E94C00D81112FCF1092C40C1F5F35
:102F9000183091F79FEF9093C40C1B82CDB7DEB72A
:102FA000EAE00C94EE99A2E0B0E0E9EDF7E10C94D0
:102FB000D3996C01DC0156968C9156978A8357966B
:102FC0008C915797898358968D919C91599701962A
:102FD00059969C938E935897ED91FC91119710827E
:102FE000ED91FC91119712968C9112978183AE010D
:102FF0004F5F5F4FBE016E5F7F4F55968C9117DE1E
:10300000882321F01A82F090E90D12C0D601ED91CB
:10301000FC9111978A818083ED91FC9111974981F0
:1030200041836A8155968C910CD8811130C0F12C66
:10303000F601B588478966898B2D0E94C00CD601A0
:103040002D913C91AC0160E070E0762F652F542FFC
:103050004427EE24E39400E011E08B2D0E94D54339
:10306000182F811114C08A81F601868B8981878B84
:1030700082E0838381E0828382858D7F8287C6019F
:103080000E94AC0CFF2039F08F2D0E942A35C6011A
:103090000E94020C11E0812F2296E9E00C94EF9936
:1030A000A2E0B0E0E6E5F8E10C94D499F82EE62E23
:1030B000042F0E94DC0F87FF02C011E060C088234C
:1030C00011F010E05CC09E012F5F3F4F40E06E2D7D
:1030D0008F2D0E94FD0E182F8111EFCFE091FB087C
:1030E000F091FC0882858260828780E6F89EF0017C
:1030F0001124E758F14F9081802F8695869586950B
:10310000E981FA810770E80FF11D913061F480E8E0
:1031100090E0002E02C0959587950A94E2F7908181
:10312000892B80832CC081E090E0002E01C0880FA5
:103130000A94EAF79081892B80839E012F5F3F4F8D
:1031400041E06E2D8F2D0E94FD0E182F8111B5CFFD
:10315000C980DA80F60100816E2D8F2DF8DA202FDC
:1031600030E02817390708F0ACCF0F5FF601008375
:10317000E091FB08F091FC08828582608287812FB4
:103180002296E8E00C94F099A5E1B0E0EAECF8E1D1
:103190000C94D0996C017B01DC01EC91B0E6EB9FC3
:1031A000F0011124E758F14F8081813011F08FE157
:1031B0001DC00E94890B5C01892B09F428C1BE0146
:1031C0006F5F7F4FC60101DE811121C1F60185814C
:1031D0008D8B86818C8BAE014C5E5F4FBE016B5E2A
:1031E0007F4F808124DD882321F088E40E942A35E6
:1031F0000EC14C896D89D6018C910E9421108111DC
:1032000006C18D898B8B8C898A8BAE014E5E5F4F98
:10321000BE016D5E7F4FF601808109DD882349F094
:1032200088E40E942A354C896D89D6018C9138DF5B
:10323000EEC04A896B89F60180810E9421108111BC
:10324000E6C0D501ED91FC9180E091E0DF019C01A9
:103250001D9221503040E1F7D5018D919C9149E1BB
:1032600050E060EA70E004960E945E9AD501ED910C
:10327000FC9111978B8980838A89818388E482837A
:10328000ED91FC918D8980A38C8981A3D60115963F
:103290008C91159782A316968C9183A38A8184A31F
:1032A0008B8185A38C818295880F807E8E5F86A31B
:1032B0004701D501ED91FC913496D7018D9188237A
:1032C00011F08193FBCFD501ED91FC91D7018C9149
:1032D000868B11968C91878B81E3818F88E4828F16
:1032E000F601F0804C896D898F2D0E94C00CD501AC
:1032F0002D913C91AC0160E070E0762F652F542F4A
:103300004427E12C00E011E08F2D0E94D54381116C
:103310007EC0D501ED91FC9180E091E0DF019C0140
:103320001D9221503040E1F7D501ED91FC918FEFD6
:103330008183F601F0804A896B898F2D0E94C00C31
:10334000D5012D913C91AC0160E070E0762F652FA6
:10335000542F44278F2D0E94D543811158C08FE1EF
:10336000E5ECFCE0DF011D928A95E9F740E150E0D1
:1033700060EA70E088EC9CE00E945E9AE8ECFCE079
:10338000D4018D914D01882311F08193F9CF86E806
:103390008093C50C8D898093C60C8C898093C70C53
:1033A00082E08093E10C82E58093DC0C88E08093DE
:1033B000DD0C8FE18093DE0C1092DF0C1092E00C9C
:1033C000F601D0804B816A818D2D0E94C00C4C810A
:1033D000F0E24F9FA0011124052E000C660B770B25
:1033E0004E5F5F4F6F4F7F4FA0E0B0E0BA2FA92F25
:1033F000982F8827480F591F6A1F7B1FEE24E394DC
:103400000EE110E025EC3CE08D2D0E94D543659641
:10341000ECE00C94EC99AF92BF92CF92DF92EF92D6
:103420000F931F93CF93DF931F921F92CDB7DEB7F9
:103430006C015B018CE1A80EB11CB501F601808125
:103440000E94EB0D882311F08FEF27C08091C60CEE
:1034500089838091C70C8A834A816981F6018081C2
:103460001FDE83E4E82E02E010E09E012F5F3F4F55
:103470004A816981F601808141DA8111E5CF898134
:103480008111EACF1092C50C41E0B501F6018081AF
:103490000E94C00D8111D8CF81E00F900F90DF9175
:1034A000CF911F910F91EF90DF90CF90BF90AF9091
:1034B0000895EF92FF920F931F93CF93DF937C01B8
:1034C000D62FC42F122F442389F080E6689FF00185
:1034D0001124E658F14F8281841740F0642F8D2F1C
:1034E00036D9212F30E02817390730F0412F6C2FC3
:1034F00082E40E944A3416C0412F6C2F8D2F0E9407
:10350000C00CF70120813181AC0160E070E0762FC2
:10351000652F542F4427EE24E39400E011E08D2F13
:103520000E94D543CDB7DEB7E6E00C94F299A1E155
:10353000B0E0EDE9FAE10C94CD996C015B01142F38
:103540007901DC01EC91B0E6EB9FF0011124E85D1C
:10355000F14F83A981FD02C08AE19CC00023B1F034
:10356000A901C6014BDA8091E90D811136C1D7015D
:10357000ED91FC918081882309F499C0D7011D96B3
:10358000ED91FC911E97C7011995EDCFBE016F5FBC
:103590007F4FC6011ADC811120C18FE1E5ECFCE010
:1035A000DF011D928A95E9F740E150E060EA70E0A2
:1035B00088EC9CE00E945E9AF501A8ECBCE0819149
:1035C000882311F08D93FBCF1093C50CF60150802A
:1035D000852C912C20E6529EF0011124E758F14FE2
:1035E0008081813011F001E029C012E0612F852D2A
:1035F0000E94A611892B09F03FC01F5F80E6889DBD
:10360000F001899DF00D1124E658F14F83811817C0
:1036100029F0112319F0123049F7DFC011E0E6CF8D
:10362000102FD5016C91601B852D0E94A611892B4E
:10363000D1F40195101614F401E0011B602E002E48
:10364000000C770820E6289DC001299D900D1124CB
:103650009C012658314F5901D90113968C9190E065
:1036600068167906ECF2F501838190E06816790618
:1036700061F0F5011081101B00E0612F852D67D8E6
:10368000202F30E02817390740F08091E90D811193
:10369000A4C088E40E942A35A0C0402F612F852D48
:1036A0000E94DC0F18160CF44EC00F5FE6CFF50138
:1036B000848D958DA68DB78DF701818B928BA38B11
:1036C000B48B8091E20C90E0982F88272091E10C38
:1036D000820F911D0197918F808F82858B7F8287CA
:1036E00092819F5F9383911104C08260F70182876A
:1036F00004C08D7FD7011A968C9383ED97E1F70173
:10370000968785878BE99EE0908B87878EE29DE088
:1037100094878387828588608064828782E580932E
:10372000DC0C88E08093DD0C8FE18093DE0C10923E
:10373000DF0C1092E00CB7016F5E7F4F41E085898E
:103740000E94C00D4AC01093C60C0093C70C402FB6
:10375000612FD6018C910E94211081113EC082E51B
:103760008093DC0C88E08093DD0C8FE18093DE0C8D
:103770001092DF0C1092E00C41E0BE016E5F7F4FB3
:10378000D6018C910E94C00D811127C0F70182855E
:1037900088608064828782E0838382838BE99EE0F5
:1037A000908B878783ED97E1968785878EE29DE0F2
:1037B000948783870190F081E02D8DE082838A8158
:1037C0009B81AC81BD81F701818B928BA38BB48BE4
:1037D000D6018C91858B168B078B6196EFE00C944C
:1037E000E999A0E0B0E0E7EFFBE10C94CC996C0123
:1037F0009B01DC019C91E92EF12CB0E69B9FC0015E
:103800001124FC01E85DF14F83AC94ACA5ACB6ACDF
:10381000E6E58E16EBE59E06E5E0AE06B10469F13D
:1038200090F4811446E5940645E0A406B104D9F568
:103830004EE050E060E372E08658914F0E942A9A71
:10384000F3E0BF2EC3C08114A0E89A06ACE0AA063C
:10385000B104F1F0B0E88B16BCE89B06BCE0AB0607
:10386000B10409F54EE050E062E272E08658914FF3
:103870000E942A9A64E8B62EA9C04EE050E060E3A8
:1038800072E08658914F0E942A9AE3E8BE2E9EC0AD
:103890004EE050E062E272E08658914F0E942A9A10
:1038A00074E0B72E93C0D501C4019B5AA240B10960
:1038B00083329A47A105B10508F04FC081149104E5
:1038C000F3E0AF06B10469F46EE270E0C9010E9452
:1038D000869A009731F0DC0112968C918E3409F4AF
:1038E00041C084011B5A81100AC0C12FDD27CE01BF
:1038F00061E170E00E944499892B09F4A4C044243A
:103900004394542C612C712CC501B401A301920184
:103910000E946B99672B682B692B21F5C4018B5A88
:103920009D4A61E071E00E944499CB0161E170E041
:103930000E944499892BB1F4C801A0E0B0E0BC0119
:10394000CD016B5A724081099109A30192010E9435
:103950008D99E90132E8B32E78C081149104A10455
:10396000B10441F0D501C401AA27BB27892B8A2BBA
:103970008B2B21F08FE40E942A3561C081149104C1
:10398000A104B1E0BB06B0F780E68E9DE0018F9DFB
:10399000D00D11244EE050E064E172E0CE01865873
:1039A000914F0E942A9AA50166277727CE01885D4C
:1039B000914FFC01EC5AFF4F40833196408335967E
:1039C00080829182A282B382BB24B3948091FB084F
:1039D0009091FC08892BA1F40E94680BFC01909344
:1039E000FC088093FB08892B51F185E684838FEFD7
:1039F000818B87E791E1908B8787828580648287BE
:103A000080E68E9DF0018F9DF00D1124DF01A758F7
:103A1000B14FBC92E658F14F8081D60115968C9338
:103A20001597818116968C938091F8088F5F80930B
:103A3000F808B7FE06C08FEF80930E0202C081E047
:103A400030C080E02EC092E0B92E80E68E9D8001CD
:103A50008F9D100D11244EE050E06EE372E0C8011E
:103A60008658914F0E942A9A085D114FF801EC5A2E
:103A7000FF4FCE0161E170E00E9444998081680FA0
:103A800060833696DC2FCC2780819181A281B3811F
:103A90008C0F9D1FA11DB11D80839183A283B383D1
:103AA00095CFCDB7DEB7E0E10C94E899CF93DF93E3
:103AB000EC01FB01A081B1818D818C93A88180E60E
:103AC000A89FD0011124A758B14F8C91A081B1813A
:103AD000813021F48E8111968C9302C011961C9234
:103AE0008881858B82852CEC34E1368725872EE210
:103AF0003DE034872387846080648287CF010E9401
:103B0000CC14DF91CF910895CF938091FB089091D1
:103B1000FC08009741F0DC011F96ED91FC91509755
:103B20001995C82F01C0C0E08091F9089091FA085A
:103B3000009739F0DC011F96ED91FC915097199593
:103B4000C82B0E94D1138C2BCF9108958091FB0834
:103B50009091FC080E94020C1092FC081092FB0845
:103B60008091F9089091FA080E94020C1092FA08CC
:103B70001092F9081092F808EEE0F2E08FEF8083DF
:103B800012820895CF93C82F8091FB089091FC0872
:103B9000009779F0DC011F96ED91FC9150971995F3
:103BA000E091FB08F091FC0881898C1302C08FEF33
:103BB000818B8091F9089091FA08009779F0DC01E7
:103BC0001F96ED91FC9150971995E091F908F091AD
:103BD000FA088189C81302C08FEF818B8091F808A1
:103BE00081508093F808811114C08091FB08909156
:103BF000FC080E94020C8091F9089091FA080E943A
:103C0000020C1092FC081092FB081092FA08109215
:103C1000F90880910E02C81305C00E94D1138FEFDE
:103C200080930E02CF910895DF92EF92FF920F934F
:103C30001F93CF93DF9390E6899FF0011124DF015A
:103C4000A85DB14FD196CD91DC91D297C45FD140A0
:103C500009F5AF5ABF4FDC909D2D9F77913011F43D
:103C600080E03BC0F22EE42EC62FD82F662369F0E9
:103C7000E658F14F8281861740F08D2F0E94A713DE
:103C80000E2D10E00817190738F04E2D6C2F82E426
:103C90000E944A3481E021C0D7FE07C06C2F8D2FCF
:103CA0000E941514882379F0F5CF81E0F816C1F24F
:103CB0000E94890B009771F3BC018D2F0E945E0D4D
:103CC000882361F3E7CFF801E25FFD4F9381F91696
:103CD00039F2F38291E090931002CDB7DEB7E7E0BE
:103CE0000C94F199A0E0B0E0E8E7FEE10C94D399E0
:103CF000F82E6B01B42EC0E0D0E06B2D8F2D0E940A
:103D0000A713C817D90738F54C2F6B2D8F2D0E949C
:103D1000C00CF60120813181AC0160E070E0762FAB
:103D2000652F542F4427E12C00E011E08F2D0E94D5
:103D3000D543811112C080E6F89EF0011124E758A6
:103D4000F14F808187FF05C021E04C2F6B2D8F2D17
:103D50006BDF2196D2CF80E001C081E0CDB7DEB726
:103D6000E9E00C94EF99A5E0B0E0E9EBFEE10C94FA
:103D7000CF99DC017C90A72CB12CB0E67B9EF001A2
:103D80001124E85DF14FDF01AF5ABF4F2C91213074
:103D900041F427A5213009F09DC020A9213009F068
:103DA00099C07A016B014C010E94890B8C0100972C
:103DB00009F490C0FC01828588608F7B8287C801EE
:103DC0000E949B0CD801ED91FC9180E091E0DF0115
:103DD0009C011D9221503040E1F796DEE091FB08F6
:103DE000F091FC088FEF818BE091F908F091FA08CF
:103DF000309709F0818BE114F10409F18824839450
:103E0000912C80E68A9DF0018B9DF00D1124E658DF
:103E1000F14F828190E08815990550F0482DB80146
:103E2000872D60DF811156C03FEF831A930AE9CFD7
:103E3000D7018C91898311968C918A8316C0BE011B
:103E40006F5F7F4FC4010E94D810811143C080E68C
:103E50008A9DF0018B9DF00D1124E658F14F4081B1
:103E6000B801872D3FDF811135C080EA8B83EE24B6
:103E7000E394F12C20E62A9DC0012B9D900D112486
:103E8000FC01E658F14F238130E02E153F05A8F0E4
:103E9000812C912C6E2D872D0E94A71388169906D0
:103EA00040F4482D6E2D872DFBD8BFEF8B1A9B0A4F
:103EB000F1CFEFEFEE1AFE0ADDCFFC01EA57F14F2A
:103EC0000190F081E02D9E012F5F3F4FA601B801C8
:103ED000872D19952596EDE00C94EB996F927F92C2
:103EE0008F929F92AF92BF92DF92EF92FF920F93C9
:103EF0001F93CF93DF9320E6829FE0011124FE0100
:103F0000E658F14F1281161708F06DC0F62ED82E24
:103F1000C85DD14F89A99AA9845F914031F4FE010F
:103F2000EF5AFF4F8081823021F08FE40E942A35C2
:103F30000DC0FAE2F61728F440E082E40E944A3409
:103F400005C00E94890B5C01892B11F481E04CC0F3
:103F500040E061E06F0D8D2D0E94C00C4E012AE5FE
:103F6000820E911CA0E0B0E0BA2FA92F982F8827CD
:103F7000F40180839183A283B383B5018D2D0E94C8
:103F80005E0D8111E3CF8F2D90E0811B910921E11E
:103F9000289F3001299F700C1124A30163E070E079
:103FA000F501808191810E945E9A61E0610F40E09D
:103FB0008D2D0E94C00CF50120813181F4014081DA
:103FC000518162817381480F591F611D711DEE245B
:103FD000E39483018D2D0E94D5438111B7CFCC5A34
:103FE000DF4FF88201C080E0DF91CF911F910F91E8
:103FF000FF90EF90DF90BF90AF909F908F907F9059
:104000006F90089590E0992329F080FD03C081FD11
:1040100008C008C0209102012F7E20930201911157
:10402000F6CFA5984091AD0F5091AE0F465F5F4F10
:104030002091AD0F3091AE0F241B350B37FDF8CF1B
:1040400020910201206120930201A59A4091AD0FB9
:104050005091AE0F465F5F4F2091AD0F3091AE0F84
:10406000241B350B37FDF8CF9F5F923061F6089522
:10407000A2E0B0E0EEE3F0E20C94CE997090E90D8E
:104080001092E90D85E00E94290C0E94890B00978F
:1040900009F4CCC0FC01C080D180F59AF601E95842
:1040A000FF4F1082F12CE12CA12CB12C8091FD0846
:1040B0008F1508F47EC0A50160E070E085E099E00E
:1040C0000E94C15481110CC09E012F5F3F4F47E7F2
:1040D00050E0B60185E099E00E94FE51882321F06E
:1040E00061E00E940F37A2C089819A8187379105CC
:1040F00020F4F601E80FF91F108289819A81892B3B
:1041000029F08601612C90E0E12C17C08091FD0818
:104110008F3F29F4FA94F092FD08F12CC5CF10924C
:10412000FD08FBCF8D30C9F08A30B9F08A3389F0B1
:104130008B3341F0803251F48F01F801819181116C
:10414000F1CF13C0992309F475C005C08930A1F3DC
:1041500002C0EE24E39491E0EFCFF8014F0181918A
:104160008D30E1F38A30D1F301C04801A114B104CC
:1041700061F448E050E06CE472E0C6010E941D9AD0
:10418000892B19F4F598662463948C189D08A80C63
:10419000B91C61108BCFF394F8011082A8014C195F
:1041A0005D094F5F5F4FB60184EF9CE00E94559A16
:1041B0007DCF8091FE0890E6899FF0011124E85D93
:1041C000F14F21A932A9255C384011F00E9421420B
:1041D000A091FE08A093260EF0E6AF9FD001112417
:1041E000AD5AB14F86E0EFEFF8E001900D928A955D
:1041F000E1F7E1100AC08091F40C8F3231F08AE3CC
:104200008093F30C03EF1CE002C004EF1CE0F59B6D
:1042100003C0C8010E940F99C80144D38091E90DE1
:10422000882331F0893421F07092E90D80E005C0D7
:1042300081E003C0662463948ECF2296EEE00C9456
:10424000EA99FF920F931F93CF93DF93EC018B01B9
:10425000F42EF2988091070990910809892B59F062
:1042600085E099E00E94B6548EE1E5E0F9E0DF01D7
:104270001D928A95E9F7F80180818823B1F149817F
:104280005A816B817C81E88180E68E9FF001112448
:10429000E85DF14F468B578B608F718F9881899FB6
:1042A000C001112421E0A80165E079E0885D914F0B
:1042B0000E94A450882321F061E00E940F3715C0AE
:1042C00087E0FE01AEEFB8E001900D928A95E1F72C
:1042D000FF2021F08FEF8093FD0802C01092FD08AF
:1042E000C7DE882311F083E08DDECDB7DEB7E5E0D1
:1042F0000C94F39940E0A5CF0895A3E6B0E0E3E87D
:10430000F1E20C94D9998091070990910809892BC1
:1043100009F0D7C061E672E083EC9CE00E94339A1A
:104320008091260E90E6899FF0011124ED5AF14FFD
:1043300096E0ABE5B0E0AC0FBD1F119601900D9279
:104340009A95E1F76C968FAF6C978091AB0F81FFD8
:1043500002C041E001C040E063EC7CE0CE01855A40
:104360009F4F6FDF8091070990910809892B09F011
:10437000A2C08091AB0F82FF9AC064E572E0CE01CB
:10438000855B9F4F0E94339AA0964CAD5DAD6EAD9C
:104390007FADA0976C968FAD6C9710E6189FC0010B
:1043A00011249E01255C3F4F885D914F0E94345639
:1043B00081117DC06C968FAD6C97189FC001112440
:1043C0002AE0AE01455B5F4FBE016F5F7F4F885DA6
:1043D000914F0E94A45081116AC0A59883EC9CE083
:1043E0009AAF89AF10E0BE01615E7F4FCE01CB96E0
:1043F0000E94675681114BC08CA5882309F447C0E1
:104400008FA184FDF0CFCE018C960E948F3D8E71DE
:1044100051F38091C30C811104C0BE01645D7F4FD4
:1044200002C063EC7CE0FB0101900020E9F73197CA
:10443000AF01461B570B9E012E593F4FCE010196EF
:104440000E942053882311F011E021C0A4968EAD64
:104450009FADA497892BC1F38DE08CA78AE08DA72F
:104460009E012E593F4F42E050E0BE01645D7F4FF8
:10447000CE0101960E9420538111E6CF11E0A4964F
:104480008EAD9FADA497892B09F0ADCFDDCFCE01C6
:1044900001960E94B654A59A112349F040E0BE014E
:1044A000655B7F4FCE01855A9F4FCBDEF29A80E04D
:1044B0000E942A3501C0F29A8091AB0F1092AB0F87
:1044C00036C08091AB0F80FF0FC08091FD088F5FD9
:1044D0008093FD088091AB0F8E7F8093AB0FC8DD7A
:1044E000882329F182E022C08091AB0F81FF0FC0A9
:1044F0008091FD0881508093FD088091AB0F8D7FE6
:104500008093AB0FB5DD882391F081E00FC08091DF
:10451000AB0F82FF0CC01092FD088091AB0F8B7F18
:104520008093AB0FA5DD882311F083E06BDDCD59BF
:10453000DF4FE3E00C94F5998EE1E5E0F9E0DF016F
:104540001D928A95E9F7F29808958091EB0C90E01E
:104550004AE750E0481B590B60E070E08D50934FE4
:104560000C945E9A0895A6E0B0E0E9EBF2E20C94B8
:10457000D499EBDF6DE270E083EF9CE00E94659AD6
:104580007C01892B09F4CEC08E010F5F1F4F84E0A0
:10459000D8011D928A95E9F76AE370E083EF9CE009
:1045A0000E94659A9E838D83892B79F4E3EFFCE06A
:1045B00001900020E9F73197E35FFC40339708F45E
:1045C000B4C085EF9CE09E838D838D819E81019692
:1045D0009E838D83680110E0ED81FE8180818823B8
:1045E000D1F01430D9F0ED81FE818081803221F448
:1045F0003196FE83ED83F7CF8D31D1F38C32C1F349
:10460000882349F01F5FCE0105960E94B893F601FA
:1046100081936F01E1CF1F3F09F487C0D701119645
:104620008C91823531F0873521F0803509F07AC0E0
:1046300055C089810E947B0C8C01892B11F486E482
:1046400072C0F7018181823549F5D80151966C918C
:10465000B0E66B9FF0011124E85DF14F01A8F2A9CB
:10466000E02D7096A591B4912C814B81C801FD017C
:1046700019958091F30C823461F481E0D80113968E
:104680008C931397ED91FC911197808112968C93E6
:104690004CC0F80113828FEF828347C08091F30CE6
:1046A000823441F4D801ED91FC91119713968C91CD
:1046B00081508083F801618980E6689FF0011124B0
:1046C000E85DF14F01A8F2A9E02D7296A591B49191
:1046D0002C814B81C801FD01199527C089810E9459
:1046E0007B0CFC01892B09F4AACF82898130B9F0B7
:1046F0008B81498193E6941B94830388F489E02D90
:10470000815048F0258936892115310511F4238916
:104710003489F901F5CF448382858D7F82878A8130
:10472000838303C08FE10E942A352696E8E00C942B
:10473000F099A0E0B0E0EFE9F3E20C94D499E090B6
:104740002809F090290900912609109127092E2D9A
:10475000281B30E0C62FD0E0C21BD30B0C171D075F
:1047600008F4E8016E01DD24D0912509E0912309C8
:10477000F091240980819181B9016750734FA6019E
:104780008D0F911D0E94559ACD0FC0932509EC0CF9
:10479000FD1CF0922909E0922809C8018C199D0995
:1047A0009093270980932609892B21F410922409DC
:1047B00010922309CDB7DEB7E8E00C94F099EF92A0
:1047C000FF921F93CF93DF937C018091EA0D8111BB
:1047D00018C085E792E00E946B0A8F2D0E944B0A59
:1047E0008E2D0E944B0A8EE692E00E946B0A809109
:1047F0003A020E944B0A809139020E944B0A0E94A1
:10480000790A8091EA0D811104C080912A09809370
:10481000EA0DC5EED2E0FE013396259134918091E8
:10482000EA0D2115310579F481110AC04091390250
:1048300050913A02652F772782E60E944A3420C0C1
:104840001092EA0DE6CFFE0132961491181316C0AD
:10485000FE0185919491E816F90681F4FE013596E2
:104860008491F9011995882349F08091EA0D81110D
:1048700007C0112329F01093EA0D02C02696CBCF72
:104880008FEF9FEF90933A02809339028091EA0D67
:1048900080932A091092EA0DDF91CF911F91FF902A
:1048A000EF900895A6E3B0E0E8E5F4E20C94D8991F
:1048B0008C0121E0AE014B5C5F4FBE01625D7F4F1A
:1048C0000E94D89281113FC01092F20D6DA97EA96D
:1048D000FB018081882341F18F3529F4CE010196B7
:1048E0000E94709A0AC09E012F5F3F4F40E2CE01A6
:1048F0008E960E94A392811126C0EEA580E6E89FC5
:10490000F0011124E85DF14F01A8F2A9E02D7C9699
:1049100025913491BE016F5F7F4FCE018E96F901D4
:104920001995811110C00BC06FE270E0C8010E94A0
:10493000659A892B21F487E20E942A3504C0CE01B2
:104940008E960E948791E696E4E00C94F499A6E78F
:10495000B0E0EDEAF4E20C94D29980E00E942A35AE
:104960004091EB0C483729F480E20E942A350C94E0
:10497000E42D8091EA0D811107C050E060E070E005
:1049800083EF9CE00E947E0A3091EB0C3093EC0C9C
:10499000332359F0E32FF0E0EE50F34F80818D3058
:1049A00021F48FEF830F8093EB0C2091EB0C2111FE
:1049B00005C08FE10E942A350C94E42D9091F40CEF
:1049C000E091F30C943409F01FC1223008F41CC1AB
:1049D000E83509F419C1B9DD8091F30C8D3439F053
:1049E000823509F442C0833409F00AC130C06AE359
:1049F00070E083EF9CE00E94659A892B29F482E2A3
:104A00000E942A350C94E42D20E0AE01425D5F4FF8
:104A1000BE016F5F7F4F85EF9CE00E94D8928111AD
:104A20000C94E42DE98120E6E29FF0011124E85D79
:104A3000F14F01A8F2A9E02D7A96259134916EA547
:104A40007FA5CE010196F90119950C94E42D85EF0F
:104A50009CE028DFF29902C00C94E42D61E070E044
:104A600080E090E047DC0C94E42D6FE270E083EF8F
:104A70009CE00E94659A892B29F082E20E942A35E7
:104A80000C94E42D85EF9CE0E5969FAF8EAFE59703
:104A9000CE018D589F4F0E94AA91E5966EAD7FADD5
:104AA000E597DB019C919A3329F082E20E942A3536
:104AB0000C94E42DDE01A459BF4F8D93082F10E014
:104AC00080E6F82EF09EF001F19EF00D1124ED5AD3
:104AD000F14F86E001900D928A95E1F76F5F7F4F6D
:104AE0009E01225D3F4F46E0CE0184599F4F0E94B8
:104AF000A39281110C94E42DAD96EFADAD97FE9E7F
:104B0000F0011124E85DF14F01A8F2A9E02D7C9697
:104B100025913491BE01625D7F4FCE0184599F4F34
:104B2000F901199581110C94E42DAD96EFADAD9777
:104B3000FE9EF0011124E85DF14F01A8F2A9E02DDD
:104B4000769625913491BE0164597F4FCE01855AE6
:104B50009F4FF901199581110C94E42D6C96EFADDE
:104B60006C97FE9EF0011124E85DF14F01A8F2A9B7
:104B7000E02D789625913491BE016F5F7F4FCE0175
:104B8000855A9F4FF90119958F3F51F08091E90D9A
:104B900081110C94E42D8FE30E942A350C94E42DAE
:104BA000F09EF001F19EF00D1124ED5AF14F86E0D8
:104BB000ACE6B0E0AC0FBD1F119601900D928A9546
:104BC000E1F7AD96EFADAD97FE9EF0011124E85DE3
:104BD000F14F01A8F2A9E02D369625913491BE013E
:104BE000625D7F4FCE0184599F4FF90119958F3F28
:104BF00009F4EAC740E0682F81E00E944A34E4C724
:104C00008EE10E942A35E0C74E2F50E0FA01E254AF
:104C1000F109E731F10508F0CBC78827EE58FF4FBF
:104C20008F4F0C94A9999FDCCFC7903531F0903D00
:104C300041F58091F50C815009C087DC85EF9CE03F
:104C40009A838983CE0101960E94AA919091270EA2
:104C500011E0180F891730F040E0612F8DE40E94B9
:104C60004A34B2C78093260EF29B05C061E070E023
:104C700080E090E03FDB40E0612F82E00E944A3418
:104C8000A3C763DC6DE370E083EF9CE00E94659A4C
:104C9000009741F4E7961FAE1EAEE7978EE10E94A3
:104CA0002A3592C79C012F5F3F4FE7963FAF2EAF4B
:104CB000E797DC011C9220E0AE014D585F4FBE012A
:104CC000625D7F4F84EF9CE00E94D89281117CC787
:104CD000E5968EAD9FADE597FC012081211104C0C2
:104CE00082E20E942A3570C70E9498918111D6CF26
:104CF000E5966EAD7FADE597AE014F5F5F4F5A0110
:104D00009A0140E2CE018E960E94A392811104C0C6
:104D10008FE30E942A3558C718160CF455C780E057
:104D20000E942A350E94890B7C010E94890B6C012C
:104D3000E114F10409F448C7892B09F445C7AE0111
:104D400044595F4F6CE2E7968EAD9FADE7970E94A6
:104D5000EF98E7969FAF8EAFE79710E0E7968EAD9E
:104D60009FADE797009709F42AC120E0AE014B58A8
:104D70005F4FBE01655A7F4F0E94D89281111FC1BB
:104D8000E7966EAD7FADE797950140E2CE01855A7B
:104D90009F4F0E94A392811112C18A89877084302B
:104DA00001F5812F8B7F21F080E40E942A3507C115
:104DB0006C96EFAD6C9750E6E59FF0011124E85D2D
:104DC000F14F01A8F2A9E02D3496A591B49101E02C
:104DD00020E0A701B501CE01855A9F4FFD0119952D
:104DE00017C0143009F36C96EFAD6C9720E6E29F84
:104DF000F0011124E85DF14F01A8F2A9E02D259101
:104E00003491A701B501CE01855A9F4FF90119953B
:104E10008091E90D8111D3C011113DC01A8917701D
:104E20008DE2D5011D928A95E9F7E5966EAD7FADCD
:104E3000E59740E150E0C5010E94779AEEA5143055
:104E4000B1F4B0E6EB9FF0011124E85DF14F01A849
:104E5000F2A9E02D3496A591B49101E0F7012581E6
:104E6000A601B501CE018E96FD01199514C020E66C
:104E7000E29FF0011124E85DF14F01A8F2A9E02DB5
:104E80003296A591B49100E09601412FB501CE0173
:104E90008E96FD011995D6011396EC91143021F4EC
:104EA000D70115960C9102C00E2F0195D7011296CD
:104EB0008C91129713969C91402F50E0282F30E050
:104EC000692F70E0261B370B2F5F3F4F24173507E4
:104ED0001CF48F5F082F091B202F30E08E2F90E0ED
:104EE00040E051E0481B590B4217530714F40E2FB2
:104EF0000195F60120813181402F50E0D701ED91DD
:104F0000FC916E0F7F1F820F931F0E94559AC6015E
:104F10000E949B0CF70183818150800F8383D6010F
:104F200013968C911397800F13968C93139781503F
:104F300012968C93828585FF04C093818281981795
:104F400059F1F7018581882351F0D7011D96ED9124
:104F5000FC911E97C7011995882349F030C0F701CD
:104F6000838191E0980F93839281891771F3D60121
:104F700015968C911597811104C013968C9181110F
:104F80008ACFD6011D96ED91FC911E97C601199509
:104F9000882309F480CF13C0C7010E941E0C0E9411
:104FA000890B7C01AE0144595F4F6CE280E090E0D8
:104FB0000E94EF98E7969FAF8EAFE797CFCED701CD
:104FC0001F96ED91FC915097C7011995C6010E945B
:104FD0001E0CFAC58091F50C0E947B0CFC01892BFC
:104FE00021F486E40E942A35EFC58289823040F0A0
:104FF000948183E6891B84830388F489E02D94835C
:1050000013828FEF82838091F60C2091F70C309100
:10501000F80C4091F90C5091FA0C9091F40C9235E7
:10502000E1F09735A9F1993409F04EC060817181A2
:1050300020E031E0DB01A9011D9241505040E1F731
:10504000408151816091F70C0E94C997882309F42F
:10505000BBC58AE40E942A35B7C59289923020F4F4
:105060008EE40E942A35B0C56081718101E00E9402
:105070009D96882309F4A8C5813021F484E10E941B
:105080002A35A2C540E0682F8AE40E944A349CC5B4
:105090009289923028F36081718101E00E943C97EF
:1050A000813041F008F490C5823041F48AE10E94D9
:1050B0002A358AC589E10E942A3586C540E0682FD5
:1050C0008AE40E944A3480C58FE10E942A357CC55B
:1050D000233008F479C59D3221F48091F50C803598
:1050E00021F08EE10E942A356FC5233021F0809196
:1050F000F60C8F3F19F48091260E8F5F1092960C5C
:105100009EE19093950CE5E8FDE0DF011D929A95F4
:10511000E9F79DE09093A30D9091270E981708F45E
:1051200053C5811108C04FE150E064E972E0CF013E
:105130000E942A9A49C5DD24DA94D80E0D2D10E07C
:10514000B0E6DB9EF0011124E85DF14FE1A8F2A882
:1051500024EFE21621E0F20629F4EF5AFF4F908186
:105160009F7701C091E09093850D92EE9093860D0C
:105170008093870D40E150E060EA70E088E89DE0B0
:105180000E945E9AF70138962591349163EC7CE099
:105190008D2DF9011995811117C5E3ECFCE0A8E804
:1051A000BDE08191882311F08D93FBCF80E6809F35
:1051B000F001819FF00D1124E85DF14F8285938508
:1051C000A485B585A093980D9093990D80939A0D21
:1051D00081A992A9845F914091F483AD94ADA5AD6E
:1051E000B6AD81509E4FAF4FBF4FBC01CD01F9E02E
:1051F0009695879577956795FA95D1F718C086812A
:105200009781A085B1859C01AD01215031094109EB
:105210005109A0A5B0E00E94C099611571058105F2
:1052200041E0940720F06FEF7FEF8FEF90E08093E5
:10523000A00D7093A10D6093A20DC6C48091E50CE2
:10524000823031F040E062E185E10E944A34BCC422
:1052500085E00E94290CB8C48091F50C873509F0CF
:10526000E2C0263008F4B0C4E090F70CF12CFE2C1C
:10527000EE248091F60CE80EF11C57E7E516F104D8
:1052800031F48091F90C8F718093240E9DC4C70175
:1052900086509C41029708F497C482E0E81688E1A2
:1052A000F80609F491C4C090F80C10922A092091D4
:1052B000390230913A026091EA0DE9EFFCE040E0FA
:1052C000C41619F15191C9018527282F2295282745
:1052D000022E269526952025022E2695202527701C
:1052E000082E892F269507942795902D82270694BE
:1052F000279590258227823AA8E39A0719F4503619
:1053000009F468E04F5F9C01DBCF30933A022093B1
:1053100039026093EA0D87E095E0FC013296D49063
:10532000DD2039F1FC01459154914217530711F0EA
:105330000496F3CFD092EA0DFC01339685919491B7
:105340008823B9F09927880F991F880F991FFC01AE
:10535000ED54F94F259134913093EF0D2093EE0DDC
:10536000FC01EB54F94F859194919093EC0D80934F
:10537000EB0D8091230990912409892B09F420C415
:105380006C2DC701D6D9DD2009F43AC080912309DC
:1053900090912409892B09F033C006ED12E0F80141
:1053A00084918D1129C0319685919491909329090A
:1053B00080932809F8013396E491F0E03196F09358
:1053C0002709E0932609109225090E94680BDC0149
:1053D0009093240980932309892B09F4ECC31A962E
:1053E0008C911A9780641A968C931A97F8013496C8
:1053F000E4911496EC93DFC30B5F1F4F8111CFCF65
:105400008091EA0D8111E0C383E892E00E946B0A6B
:1054100080913A020E944B0A809139020E944B0A05
:105420000E94790AD1C3853471F4253008F4CCC3C5
:105430008091F70C90E0982F88272091F60C820F2E
:10544000911DBDD9C1C3823509F04BCE253008F47A
:10545000BBC3253019F481E08093F80C1091F80C4F
:10546000143608F013E6E090F70CF12CFE2CEE2435
:105470008091F60CE80EF11CF7FE89C08091740D46
:10548000882309F484C08091260E00E6089FC0019D
:105490001124885D914FDC019B964D915D916D913A
:1054A0007C919E97FC01468B578B608F718F21E01A
:1054B00044E75DE06BE279E00E94A450811113C0E3
:1054C000F0E8FF1A8091330990913409A0913509D1
:1054D000B0913609811520E89207A105B10570F554
:1054E000EFE3FE222BC08091260E089FC0011124FD
:1054F000885D914FDC0156961D921D921D921C9263
:10550000599721E044E75DE06BE279E00E94A45006
:105510008823B1F210923E0E10923F0E1092400E70
:105520001092410E21E044E75DE06BE279E088E211
:105530009EE00E94A45081112AC0C2CFAC01BD01DF
:105540005F7366277727452B462B472B19F09F73F0
:10555000E80EF91EA70160E070E08BE299E00E947E
:10556000C154811114C0C12ED12C9E012F5F3F4F19
:10557000A60165E87DE08BE299E00E94FE51811171
:1055800006C089819A81C816D90609F452C0E091F3
:10559000260E20E6E29FF0011124E85DF14F81A97B
:1055A00092A9845F914051F4EF5AFF4F80818F7729
:1055B000833031F0843011F424E003C021E001C0D5
:1055C00022E08091EA0C822339F08091E60C9091E0
:1055D000E70C8E159F0519F083EB92E00DC08091CA
:1055E000E80C8093850D8091E90C8093860D1FC097
:1055F000E416F50641F00596FC01459154914115DC
:105600005105B1F714C0FC01349645915491622FB5
:1056100070E046235723452B71F3FC013296E49149
:10562000E093850DFC013396E491E093860D109292
:10563000EA0C85E89DE09093940C8093930C109273
:10564000960C1093950CE12FF0E0EB57F24F8DE0A4
:105650008083BAC20E94A5226AE370E083EF9CE0D7
:105660000E94659A892B21F482E20E942A35ACC2FD
:1056700020E0AE01425D5F4FBE016F5F7F4F84EF60
:105680009CE00E94D89281119FC26CE270E08EA5CE
:105690009FA50E94659A009719F0DC011D92CD012B
:1056A0006EA57FA5FB0120812223F1F2E98120E68E
:1056B000E29FF0011124E85DF14F01A8F2A9E02D6D
:1056C000749625913491AC01CE010196F90119959A
:1056D0007BC23093EB0C0E94A5228091EB0C8230B0
:1056E00008F47FCC8091F40C8F700E947B0C8C01AD
:1056F000009709F476CCDC011B96ED91FC911C9788
:10570000309709F456C915962C91222341F18091C6
:10571000EB0C823068F0A091F50CB0E0823051F0D3
:105720009091F60CB92B833029F05091F70C03C0FF
:10573000A1E0B0E051E0251720F483E30E942A3570
:1057400043C2109709F011975111515030E00E9457
:10575000B199252FAB01BC01C801199535C2409103
:10576000F50C5091F60C6091F70C7091F80C20E05C
:1057700019952AC20E94A5226DE370E083EF9CE098
:105780000E94659A009741F4E5961FAE1EAEE5971C
:105790008EE10E942A3518C29C012F5F3F4FE5968B
:1057A0003FAF2EAFE597FC01108220E0AE014459D7
:1057B0005F4FBE01625D7F4F84EF9CE00E94D892F4
:1057C000811102C220E0AE014D585F4FBE01655A03
:1057D0007F4FE5968EAD9FADE5970E94D8928111DF
:1057E000F3C146E050E0BE01615D7F4F8BE590E084
:1057F0008C0F9D1F01960E94489A892B21F08EE301
:105800000E942A35E1C1AE968EAD9FADAE970E9443
:1058100098918111BDCFAE966EAD7FADAE97DB0195
:105820008C91811104C082E20E942A35CDC19E0173
:105830002F5F3F4F40E2CE018E960E94A3928111CE
:1058400004C08FE30E942A35BFC118160CF4BCC1F6
:1058500080E00E942A35E5966EAD7FADE5979E010A
:105860002F5F3F4F40E2CE01855A9F4F0E94A39287
:105870008111AAC16C96EFAD6C97B0E6EB9FF00179
:105880001124E85DF14F01A8F2A9E02D7E96259143
:105890003491AE964EAD5FADAE97BE016F5F7F4F58
:1058A000CE01855A9F4FF90119958EC1233019F405
:1058B0009D3209F47EC80E94A522AE0144595F4F73
:1058C0006CE284EF9CE00E94EF98209102012F7E11
:1058D0002093020110E0009709F458C020E0AE01C7
:1058E000455A5F4FBE01625D7F4F0E94D892EEA580
:1058F00020E6E29FF0011124E85DF14F01A8F2A932
:10590000E02D769625913491BE01625D7F4F82E64F
:105910009BE0F9011995811157C16D966EAD7FAD70
:105920006D97AE014F5F5F4F7A0100E220E030E0FB
:1059300040E050E082E69BE00E944B9287FD1DC054
:10594000811142C18A898770863039F3EEA550E60D
:10595000E59FF0011124E85DF14F01A8F2A9E02DC7
:10596000369625913491B701CE018E96F90119959D
:105970008F3F09F429C1180FD0CFAE0144595F4FB2
:105980006CE280E090E00E94EF98A5CF40E0612FAC
:1059900081E080D719C19A3309F451C060F4923381
:1059A00021F130F4903309F451C09133A9F05CC077
:1059B000993388F523C0993438F49334F8F491344A
:1059C00059F0923491F050C09A34C9F120F19A3CC8
:1059D00009F04AC00E94D2098DE28093F30C82E55F
:1059E0008093F40C0E94B322EFC08DE28093F30CFD
:1059F00087E58093F40C0E94B322E6C09F70892F44
:105A000090E003979C01220F331F820F931F9B5F2F
:105A10000E94DF23D9C0223021F489E40E942A3574
:105A2000D3C08091F50C8B3221F08D3221F4F09AA5
:105A3000CBC0F098C9C089E40E942A35C5C084E073
:105A40000E94290C89E40E942A35BEC08091F50C81
:105A50008F718E3149F48091F60C9CEF980F9B3139
:105A600018F48093240EB0C08EE1F4D7ADC00E942C
:105A7000A5228091F40C8534F1F048F48F3309F4B9
:105A800089C08434C9F18A3209F087C071C0823577
:105A900009F445C018F4893491F17FC0833509F4C5
:105AA00053C0873509F079C0C6D240E06091240E1A
:105AB00083E0F0D689C085EF9CE09FA78EA78091F8
:105AC000F50C8B3291F08D3211F4F3980FC0CE01AA
:105AD0008E960E94B8939C01853018F08EE1BAD75B
